{
  "contractName": "Grader",
  "abi": [
    {
      "inputs": [],
      "payable": false,
      "stateMutability": "nonpayable",
      "type": "constructor"
    },
    {
      "constant": false,
      "inputs": [],
      "name": "kill",
      "outputs": [],
      "payable": false,
      "stateMutability": "nonpayable",
      "type": "function"
    },
    {
      "constant": false,
      "inputs": [
        {
          "name": "instrlist",
          "type": "address[]"
        }
      ],
      "name": "addInstructor",
      "outputs": [
        {
          "name": "added",
          "type": "bool"
        }
      ],
      "payable": false,
      "stateMutability": "nonpayable",
      "type": "function"
    },
    {
      "constant": true,
      "inputs": [],
      "name": "getInstructorsList",
      "outputs": [
        {
          "name": "instrList",
          "type": "address[]"
        }
      ],
      "payable": false,
      "stateMutability": "view",
      "type": "function"
    },
    {
      "constant": false,
      "inputs": [
        {
          "name": "courseID",
          "type": "bytes32"
        },
        {
          "name": "courseName",
          "type": "string"
        },
        {
          "name": "rollList",
          "type": "bytes32[]"
        },
        {
          "name": "studAddr",
          "type": "address[]"
        },
        {
          "name": "TAs",
          "type": "address[]"
        }
      ],
      "name": "addCourse",
      "outputs": [
        {
          "name": "added",
          "type": "bool"
        }
      ],
      "payable": false,
      "stateMutability": "nonpayable",
      "type": "function"
    },
    {
      "constant": false,
      "inputs": [
        {
          "name": "courseID",
          "type": "bytes32"
        },
        {
          "name": "examID",
          "type": "bytes32"
        },
        {
          "name": "maxMarks",
          "type": "uint256"
        },
        {
          "name": "rollList",
          "type": "bytes32[]"
        },
        {
          "name": "marksList",
          "type": "uint256[]"
        }
      ],
      "name": "addExam",
      "outputs": [
        {
          "name": "added",
          "type": "bool"
        }
      ],
      "payable": false,
      "stateMutability": "nonpayable",
      "type": "function"
    },
    {
      "constant": false,
      "inputs": [
        {
          "name": "courseID",
          "type": "bytes32"
        },
        {
          "name": "examID",
          "type": "bytes32"
        },
        {
          "name": "rollList",
          "type": "bytes32[]"
        },
        {
          "name": "marksList",
          "type": "uint256[]"
        }
      ],
      "name": "updateMarks",
      "outputs": [
        {
          "name": "added",
          "type": "bool"
        }
      ],
      "payable": false,
      "stateMutability": "nonpayable",
      "type": "function"
    },
    {
      "constant": false,
      "inputs": [
        {
          "name": "courseID",
          "type": "bytes32"
        },
        {
          "name": "weightageList",
          "type": "uint256[]"
        },
        {
          "name": "gradeCutoffs",
          "type": "uint256[]"
        }
      ],
      "name": "calculateGrades",
      "outputs": [
        {
          "name": "added",
          "type": "bool"
        }
      ],
      "payable": false,
      "stateMutability": "nonpayable",
      "type": "function"
    },
    {
      "constant": true,
      "inputs": [
        {
          "name": "courseID",
          "type": "bytes32"
        }
      ],
      "name": "getProfExamWeightages",
      "outputs": [
        {
          "name": "examslist",
          "type": "bytes32[]"
        },
        {
          "name": "maxMarkslist",
          "type": "uint256[]"
        },
        {
          "name": "weightages",
          "type": "uint256[]"
        }
      ],
      "payable": false,
      "stateMutability": "view",
      "type": "function"
    },
    {
      "constant": false,
      "inputs": [
        {
          "name": "courseID",
          "type": "bytes32"
        }
      ],
      "name": "getInverseMarks",
      "outputs": [
        {
          "name": "added",
          "type": "bool"
        }
      ],
      "payable": false,
      "stateMutability": "nonpayable",
      "type": "function"
    },
    {
      "constant": true,
      "inputs": [
        {
          "name": "courseID",
          "type": "bytes32"
        },
        {
          "name": "examID",
          "type": "bytes32"
        }
      ],
      "name": "getProfExamMarks",
      "outputs": [
        {
          "name": "rolllist",
          "type": "bytes32[]"
        },
        {
          "name": "markslist",
          "type": "uint256[]"
        },
        {
          "name": "maxmarks",
          "type": "uint256"
        },
        {
          "name": "weightage",
          "type": "uint256"
        }
      ],
      "payable": false,
      "stateMutability": "view",
      "type": "function"
    },
    {
      "constant": true,
      "inputs": [
        {
          "name": "courseID",
          "type": "bytes32"
        },
        {
          "name": "rollNo",
          "type": "bytes32"
        }
      ],
      "name": "getStudentMarksGrades",
      "outputs": [
        {
          "name": "examslist",
          "type": "bytes32[]"
        },
        {
          "name": "weightages",
          "type": "uint256[]"
        },
        {
          "name": "maxMarkslist",
          "type": "uint256[]"
        },
        {
          "name": "markslist",
          "type": "uint256[]"
        },
        {
          "name": "totalmarks",
          "type": "uint256"
        },
        {
          "name": "grade",
          "type": "uint256"
        }
      ],
      "payable": false,
      "stateMutability": "view",
      "type": "function"
    },
    {
      "constant": true,
      "inputs": [
        {
          "name": "courseID",
          "type": "bytes32"
        }
      ],
      "name": "getProfMarksGrades",
      "outputs": [
        {
          "name": "rolllist",
          "type": "bytes32[]"
        },
        {
          "name": "totalmarks",
          "type": "uint256[]"
        },
        {
          "name": "gradelist",
          "type": "uint256[]"
        }
      ],
      "payable": false,
      "stateMutability": "view",
      "type": "function"
    }
  ],
  "bytecode": "0x608060405261010060405190810160405280600a60ff168152602001600960ff168152602001600860ff168152602001600760ff168152602001600660ff168152602001600560ff168152602001600460ff168152602001600060ff16815250600690600862000071929190620000c6565b503480156200007f57600080fd5b50336000806101000a81548173ffffffffffffffffffffffffffffffffffffffff021916908373ffffffffffffffffffffffffffffffffffffffff16021790555062000138565b8260088101928215620000fd579160200282015b82811115620000fc578251829060ff16905591602001919060010190620000da565b5b5090506200010c919062000110565b5090565b6200013591905b808211156200013157600081600090555060010162000117565b5090565b90565b61459680620001486000396000f3006080604052600436106100ba576000357c0100000000000000000000000000000000000000000000000000000000900463ffffffff168063018e2ef4146100bf57806304c40a46146102175780631beea99b146102f457806322b086f81461036057806338045e3a146104da57806341c0e1b5146105585780635d683a641461056f578063656072b8146106565780638e9fbd9514610725578063abff93bd1461083b578063b2c5934714610884578063f5f31ae01461099a575b600080fd5b3480156100cb57600080fd5b506101fd6004803603810190808035600019169060200190929190803590602001908201803590602001908080601f0160208091040260200160405190810160405280939291908181526020018383808284378201915050505050509192919290803590602001908201803590602001908080602002602001604051908101604052809392919081815260200183836020028082843782019150505050505091929192908035906020019082018035906020019080806020026020016040519081016040528093929190818152602001838360200280828437820191505050505050919291929080359060200190820180359060200190808060200260200160405190810160405280939291908181526020018383602002808284378201915050505050509192919290505050610a84565b604051808215151515815260200191505060405180910390f35b34801561022357600080fd5b506102da600480360381019080803560001916906020019092919080356000191690602001909291908035906020019082018035906020019080806020026020016040519081016040528093929190818152602001838360200280828437820191505050505050919291929080359060200190820180359060200190808060200260200160405190810160405280939291908181526020018383602002808284378201915050505050509192919290505050611119565b604051808215151515815260200191505060405180910390f35b34801561030057600080fd5b506103096115e3565b6040518080602001828103825283818151815260200191508051906020019060200280838360005b8381101561034c578082015181840152602081019050610331565b505050509050019250505060405180910390f35b34801561036c57600080fd5b5061039d60048036038101908080356000191690602001909291908035600019169060200190929190505050611735565b604051808060200180602001806020018060200187815260200186815260200185810385528b818151815260200191508051906020019060200280838360005b838110156103f85780820151818401526020810190506103dd565b5050505090500185810384528a818151815260200191508051906020019060200280838360005b8381101561043a57808201518184015260208101905061041f565b50505050905001858103835289818151815260200191508051906020019060200280838360005b8381101561047c578082015181840152602081019050610461565b50505050905001858103825288818151815260200191508051906020019060200280838360005b838110156104be5780820151818401526020810190506104a3565b505050509050019a505050505050505050505060405180910390f35b3480156104e657600080fd5b5061053e60048036038101908080359060200190820180359060200190808060200260200160405190810160405280939291908181526020018383602002808284378201915050505050509192919290505050611c17565b604051808215151515815260200191505060405180910390f35b34801561056457600080fd5b5061056d611e5a565b005b34801561057b57600080fd5b5061063c60048036038101908080356000191690602001909291908035600019169060200190929190803590602001909291908035906020019082018035906020019080806020026020016040519081016040528093929190818152602001838360200280828437820191505050505050919291929080359060200190820180359060200190808060200260200160405190810160405280939291908181526020018383602002808284378201915050505050509192919290505050611eef565b604051808215151515815260200191505060405180910390f35b34801561066257600080fd5b5061070b60048036038101908080356000191690602001909291908035906020019082018035906020019080806020026020016040519081016040528093929190818152602001838360200280828437820191505050505050919291929080359060200190820180359060200190808060200260200160405190810160405280939291908181526020018383602002808284378201915050505050509192919290505050612508565b604051808215151515815260200191505060405180910390f35b34801561073157600080fd5b50610754600480360381019080803560001916906020019092919050505061284b565b60405180806020018060200180602001848103845287818151815260200191508051906020019060200280838360005b8381101561079f578082015181840152602081019050610784565b50505050905001848103835286818151815260200191508051906020019060200280838360005b838110156107e15780820151818401526020810190506107c6565b50505050905001848103825285818151815260200191508051906020019060200280838360005b83811015610823578082015181840152602081019050610808565b50505050905001965050505050505060405180910390f35b34801561084757600080fd5b5061086a6004803603810190808035600019169060200190929190505050612aeb565b604051808215151515815260200191505060405180910390f35b34801561089057600080fd5b506108b36004803603810190808035600019169060200190929190505050612f6e565b60405180806020018060200180602001848103845287818151815260200191508051906020019060200280838360005b838110156108fe5780820151818401526020810190506108e3565b50505050905001848103835286818151815260200191508051906020019060200280838360005b83811015610940578082015181840152602081019050610925565b50505050905001848103825285818151815260200191508051906020019060200280838360005b83811015610982578082015181840152602081019050610967565b50505050905001965050505050505060405180910390f35b3480156109a657600080fd5b506109d76004803603810190808035600019169060200190929190803560001916906020019092919050505061320e565b604051808060200180602001858152602001848152602001838103835287818151815260200191508051906020019060200280838360005b83811015610a2a578082015181840152602081019050610a0f565b50505050905001838103825286818151815260200191508051906020019060200280838360005b83811015610a6c578082015181840152602081019050610a51565b50505050905001965050505050505060405180910390f35b6000806000600460003373ffffffffffffffffffffffffffffffffffffffff1673ffffffffffffffffffffffffffffffffffffffff16815260200190815260200160002060009054906101000a900460ff168015610b08575060026000896000191660001916815260200190815260200160002060009054906101000a900460ff16155b1515610b7c576040517f08c379a00000000000000000000000000000000000000000000000000000000081526004018080602001828103825260098152602001807f616464436f75727365000000000000000000000000000000000000000000000081525060200191505060405180910390fd5b84518651141515610bf5576040517f08c379a00000000000000000000000000000000000000000000000000000000081526004018080602001828103825260098152602001807f616464436f75727365000000000000000000000000000000000000000000000081525060200191505060405180910390fd5b33600560008a6000191660001916815260200190815260200160002060006101000a81548173ffffffffffffffffffffffffffffffffffffffff021916908373ffffffffffffffffffffffffffffffffffffffff1602179055506001600260008a6000191660001916815260200190815260200160002060006101000a81548160ff021916908315150217905550600188908060018154018082558091505090600182039060005260206000200160009091929091909150906000191690555060a060405190810160405280896000191681526020018881526020013373ffffffffffffffffffffffffffffffffffffffff16815260200187815260200160001515815250600e60008a60001916600019168152602001908152602001600020600082015181600001906000191690556020820151816001019080519060200190610d419291906142a6565b5060408201518160020160006101000a81548173ffffffffffffffffffffffffffffffffffffffff021916908373ffffffffffffffffffffffffffffffffffffffff1602179055506060820151816003019080519060200190610da5929190614326565b5060808201518160040160006101000a81548160ff021916908315150217905550905050600091505b855182101561106457600e6000896000191660001916815260200190815260200160002060080160008684815181101515610e0557fe5b9060200190602002015173ffffffffffffffffffffffffffffffffffffffff1673ffffffffffffffffffffffffffffffffffffffff16815260200190815260200160002060009054906101000a900460ff161515610f8d578482815181101515610e6b57fe5b90602001906020020151600e60008a6000191660001916815260200190815260200160002060070160008885815181101515610ea357fe5b906020019060200201516000191660001916815260200190815260200160002060006101000a81548173ffffffffffffffffffffffffffffffffffffffff021916908373ffffffffffffffffffffffffffffffffffffffff1602179055506001600e60008a6000191660001916815260200190815260200160002060080160008785815181101515610f3157fe5b9060200190602002015173ffffffffffffffffffffffffffffffffffffffff1673ffffffffffffffffffffffffffffffffffffffff16815260200190815260200160002060006101000a81548160ff0219169083151502179055505b600e6000896000191660001916815260200190815260200160002060050160008784815181101515610fbb57fe5b906020019060200201516000191660001916815260200190815260200160002060009054906101000a900460ff161515611057576001600e60008a600019166000191681526020019081526020016000206005016000888581518110151561101f57fe5b906020019060200201516000191660001916815260200190815260200160002060006101000a81548160ff0219169083151502179055505b8180600101925050610dce565b600090505b835181101561110a576001600e60008a60001916600019168152602001908152602001600020600601600086848151811015156110a257fe5b9060200190602002015173ffffffffffffffffffffffffffffffffffffffff1673ffffffffffffffffffffffffffffffffffffffff16815260200190815260200160002060006101000a81548160ff0219169083151502179055508080600101915050611069565b60019250505095945050505050565b6000806000806000600260008a6000191660001916815260200190815260200160002060009054906101000a900460ff16801561122c57503373ffffffffffffffffffffffffffffffffffffffff16600560008b6000191660001916815260200190815260200160002060009054906101000a900473ffffffffffffffffffffffffffffffffffffffff1673ffffffffffffffffffffffffffffffffffffffff16148061122b5750600e60008a6000191660001916815260200190815260200160002060060160003373ffffffffffffffffffffffffffffffffffffffff1673ffffffffffffffffffffffffffffffffffffffff16815260200190815260200160002060009054906101000a900460ff165b5b80156112605750600e60008a6000191660001916815260200190815260200160002060040160009054906101000a900460ff165b80156112ad5750600f60008a600019166000191681526020019081526020016000206009016000896000191660001916815260200190815260200160002060009054906101000a900460ff165b1515611321576040517f08c379a000000000000000000000000000000000000000000000000000000000815260040180806020018281038252600b8152602001807f7570646174654d61726b7300000000000000000000000000000000000000000081525060200191505060405180910390fd5b8651865114151561139a576040517f08c379a000000000000000000000000000000000000000000000000000000000815260040180806020018281038252600b8152602001807f7570646174654d61726b7300000000000000000000000000000000000000000081525060200191505060405180910390fd5b600093505b865184101561143b5785848151811015156113b657fe5b90602001906020020151600f60008b60001916600019168152602001908152602001600020600a0160008a600019166000191681526020019081526020016000206002016000898781518110151561140a57fe5b906020019060200201516000191660001916815260200190815260200160002081905550838060010194505061139f565b600092505b600e60008a60001916600019168152602001908152602001600020600301805490508310156115d357600e60008a600019166000191681526020019081526020016000206003018381548110151561149457fe5b90600052602060002001549150600090505b600f60008a60001916600019168152602001908152602001600020600001805490508110156115c6578760001916600f60008b60001916600019168152602001908152602001600020600001828154811015156114ff57fe5b90600052602060002001546000191614156115b957600f60008a60001916600019168152602001908152602001600020600a01600089600019166000191681526020019081526020016000206002016000836000191660001916815260200190815260200160002054600f60008b600019166000191681526020019081526020016000206006018481548110151561159357fe5b90600052602060002001828154811015156115aa57fe5b90600052602060002001819055505b80806001019150506114a6565b8280600101935050611440565b6001945050505050949350505050565b60606000809054906101000a900473ffffffffffffffffffffffffffffffffffffffff1673ffffffffffffffffffffffffffffffffffffffff163373ffffffffffffffffffffffffffffffffffffffff161415156116a9576040517f08c379a00000000000000000000000000000000000000000000000000000000081526004018080602001828103825260128152602001807f676574496e7374726375746f72734c697374000000000000000000000000000081525060200191505060405180910390fd5b600380548060200260200160405190810160405280929190818152602001828054801561172b57602002820191906000526020600020905b8160009054906101000a900473ffffffffffffffffffffffffffffffffffffffff1673ffffffffffffffffffffffffffffffffffffffff16815260200190600101908083116116e1575b5050505050905090565b6060806060806000806000600260008a6000191660001916815260200190815260200160002060009054906101000a900460ff16801561184b57503373ffffffffffffffffffffffffffffffffffffffff16600560008b6000191660001916815260200190815260200160002060009054906101000a900473ffffffffffffffffffffffffffffffffffffffff1673ffffffffffffffffffffffffffffffffffffffff16148061184a5750600e60008a6000191660001916815260200190815260200160002060080160003373ffffffffffffffffffffffffffffffffffffffff1673ffffffffffffffffffffffffffffffffffffffff16815260200190815260200160002060009054906101000a900460ff165b5b80156118985750600e60008a600019166000191681526020019081526020016000206005016000896000191660001916815260200190815260200160002060009054906101000a900460ff165b80156118cc5750600e60008a6000191660001916815260200190815260200160002060040160009054906101000a900460ff165b1515611940576040517f08c379a000000000000000000000000000000000000000000000000000000000815260040180806020018281038252600f8152602001807f67657453747564656e744d61726b73000000000000000000000000000000000081525060200191505060405180910390fd5b600f60008a600019166000191681526020019081526020016000206000018054806020026020016040519081016040528092919081815260200182805480156119ac57602002820191906000526020600020905b81546000191681526020019060010190808311611994575b50505050509650600f60008a60001916600019168152602001908152602001600020600101805480602002602001604051908101604052809291908181526020018280548015611a1b57602002820191906000526020600020905b815481526020019060010190808311611a07575b50505050509550600f60008a60001916600019168152602001908152602001600020600201805480602002602001604051908101604052809291908181526020018280548015611a8a57602002820191906000526020600020905b815481526020019060010190808311611a76575b50505050509450600090505b600e60008a6000191660001916815260200190815260200160002060030180549050811015611b98578760001916600e60008b6000191660001916815260200190815260200160002060030182815481101515611aef57fe5b9060005260206000200154600019161415611b8b57600f60008a6000191660001916815260200190815260200160002060060181815481101515611b2f57fe5b90600052602060002001805480602002602001604051908101604052809291908181526020018280548015611b8357602002820191906000526020600020905b815481526020019060010190808311611b6f575b505050505093505b8080600101915050611a96565b600f60008a60001916600019168152602001908152602001600020600c0160008960001916600019168152602001908152602001600020549250600f60008a60001916600019168152602001908152602001600020600d0160008960001916600019168152602001908152602001600020549150509295509295509295565b6000806000809054906101000a900473ffffffffffffffffffffffffffffffffffffffff1673ffffffffffffffffffffffffffffffffffffffff163373ffffffffffffffffffffffffffffffffffffffff16141515611cde576040517f08c379a000000000000000000000000000000000000000000000000000000000815260040180806020018281038252600d8152602001807f616464496e7374727563746f720000000000000000000000000000000000000081525060200191505060405180910390fd5b600090505b8251811015611e5057600460008483815181101515611cfe57fe5b9060200190602002015173ffffffffffffffffffffffffffffffffffffffff1673ffffffffffffffffffffffffffffffffffffffff16815260200190815260200160002060009054906101000a900460ff161515611e435760038382815181101515611d6657fe5b9060200190602002015190806001815401808255809150509060018203906000526020600020016000909192909190916101000a81548173ffffffffffffffffffffffffffffffffffffffff021916908373ffffffffffffffffffffffffffffffffffffffff160217905550506001600460008584815181101515611de757fe5b9060200190602002015173ffffffffffffffffffffffffffffffffffffffff1673ffffffffffffffffffffffffffffffffffffffff16815260200190815260200160002060006101000a81548160ff0219169083151502179055505b8080600101915050611ce3565b6001915050919050565b6000809054906101000a900473ffffffffffffffffffffffffffffffffffffffff1673ffffffffffffffffffffffffffffffffffffffff163373ffffffffffffffffffffffffffffffffffffffff16141515611eb557600080fd5b6000809054906101000a900473ffffffffffffffffffffffffffffffffffffffff1673ffffffffffffffffffffffffffffffffffffffff16ff5b600080600060026000896000191660001916815260200190815260200160002060009054906101000a900460ff168015611fff57503373ffffffffffffffffffffffffffffffffffffffff16600560008a6000191660001916815260200190815260200160002060009054906101000a900473ffffffffffffffffffffffffffffffffffffffff1673ffffffffffffffffffffffffffffffffffffffff161480611ffe5750600e6000896000191660001916815260200190815260200160002060060160003373ffffffffffffffffffffffffffffffffffffffff1673ffffffffffffffffffffffffffffffffffffffff16815260200190815260200160002060009054906101000a900460ff165b5b1515612073576040517f08c379a00000000000000000000000000000000000000000000000000000000081526004018080602001828103825260078152602001807f6164644578616d0000000000000000000000000000000000000000000000000081525060200191505060405180910390fd5b845184511415156120ec576040517f08c379a00000000000000000000000000000000000000000000000000000000081526004018080602001828103825260078152602001807f6164644578616d0000000000000000000000000000000000000000000000000081525060200191505060405180910390fd5b600e6000896000191660001916815260200190815260200160002060040160009054906101000a900460ff1615156121295761212788613553565b505b600f600089600019166000191681526020019081526020016000206009016000886000191660001916815260200190815260200160002060009054906101000a900460ff161515156121e3576040517f08c379a00000000000000000000000000000000000000000000000000000000081526004018080602001828103825260078152602001807f6164644578616d0000000000000000000000000000000000000000000000000081525060200191505060405180910390fd5b6001600f60008a600019166000191681526020019081526020016000206009016000896000191660001916815260200190815260200160002060006101000a81548160ff021916908315150217905550600f60008960001916600019168152602001908152602001600020600001879080600181540180825580915050906001820390600052602060002001600090919290919091509060001916905550600f6000896000191660001916815260200190815260200160002060020186908060018154018082558091505090600182039060005260206000200160009091929091909150555060408051908101604052808860001916815260200187815250600f60008a60001916600019168152602001908152602001600020600a01600089600019166000191681526020019081526020016000206000820151816000019060001916905560208201518160010155905050600091505b84518210156123d757838281518110151561235257fe5b90602001906020020151600f60008a60001916600019168152602001908152602001600020600a0160008960001916600019168152602001908152602001600020600201600087858151811015156123a657fe5b906020019060200201516000191660001916815260200190815260200160002081905550818060010192505061233b565b600090505b600e60008960001916600019168152602001908152602001600020600301805490508110156124f957600f600089600019166000191681526020019081526020016000206006018181548110151561243057fe5b90600052602060002001600f60008a60001916600019168152602001908152602001600020600a01600089600019166000191681526020019081526020016000206002016000600e60008c60001916600019168152602001908152602001600020600301848154811015156124a157fe5b90600052602060002001546000191660001916815260200190815260200160002054908060018154018082558091505090600182039060005260206000200160009091929091909150555080806001019150506123dc565b60019250505095945050505050565b60008060008060026000886000191660001916815260200190815260200160002060009054906101000a900460ff1680156125a957503373ffffffffffffffffffffffffffffffffffffffff1660056000896000191660001916815260200190815260200160002060009054906101000a900473ffffffffffffffffffffffffffffffffffffffff1673ffffffffffffffffffffffffffffffffffffffff16145b80156125dd5750600e6000886000191660001916815260200190815260200160002060040160009054906101000a900460ff165b1515612651576040517f08c379a000000000000000000000000000000000000000000000000000000000815260040180806020018281038252600f8152602001807f63616c63756c617465477261646573000000000000000000000000000000000081525060200191505060405180910390fd5b61265b87876138eb565b506126668786613bcb565b5061267087613dc9565b50600092505b600e600088600019166000191681526020019081526020016000206003018054905083101561283d57600091505b600f600088600019166000191681526020019081526020016000206003018054905082101561283057600e60008860001916600019168152602001908152602001600020600301838154811015156126f857fe5b90600052602060002001549050600f600088600019166000191681526020019081526020016000206003018281548110151561273057fe5b9060005260206000200154600f60008960001916600019168152602001908152602001600020600c01600083600019166000191681526020019081526020016000205410151561282357600f600088600019166000191681526020019081526020016000206004016006836008811015156127a757fe5b015490806001815401808255809150509060018203906000526020600020016000909192909190915055506006826008811015156127e157fe5b0154600f60008960001916600019168152602001908152602001600020600d016000836000191660001916815260200190815260200160002081905550612830565b81806001019250506126a4565b8280600101935050612676565b600193505050509392505050565b606080606060026000856000191660001916815260200190815260200160002060009054906101000a900460ff1680156128eb57503373ffffffffffffffffffffffffffffffffffffffff1660056000866000191660001916815260200190815260200160002060009054906101000a900473ffffffffffffffffffffffffffffffffffffffff1673ffffffffffffffffffffffffffffffffffffffff16145b801561291f5750600e6000856000191660001916815260200190815260200160002060040160009054906101000a900460ff165b1515612993576040517f08c379a00000000000000000000000000000000000000000000000000000000081526004018080602001828103825260158152602001807f67657450726f664578616d57656967687461676573000000000000000000000081525060200191505060405180910390fd5b600f600085600019166000191681526020019081526020016000206000018054806020026020016040519081016040528092919081815260200182805480156129ff57602002820191906000526020600020905b815460001916815260200190600101908083116129e7575b50505050509250600f60008560001916600019168152602001908152602001600020600201805480602002602001604051908101604052809291908181526020018280548015612a6e57602002820191906000526020600020905b815481526020019060010190808311612a5a575b50505050509150600f60008560001916600019168152602001908152602001600020600101805480602002602001604051908101604052809291908181526020018280548015612add57602002820191906000526020600020905b815481526020019060010190808311612ac9575b505050505090509193909250565b600080600080600060026000876000191660001916815260200190815260200160002060009054906101000a900460ff168015612b8e57503373ffffffffffffffffffffffffffffffffffffffff1660056000886000191660001916815260200190815260200160002060009054906101000a900473ffffffffffffffffffffffffffffffffffffffff1673ffffffffffffffffffffffffffffffffffffffff16145b8015612bc25750600e6000876000191660001916815260200190815260200160002060040160009054906101000a900460ff165b1515612c36576040517f08c379a000000000000000000000000000000000000000000000000000000000815260040180806020018281038252600d8152602001807f67657450726f664772616465730000000000000000000000000000000000000081525060200191505060405180910390fd5b600f6000876000191660001916815260200190815260200160002060080160009054906101000a900460ff161515612e4d57600f6000876000191660001916815260200190815260200160002060000180549050604051908082528060200260200182016040528015612cbd57816020015b6060815260200190600190039081612ca85790505b50600f600088600019166000191681526020019081526020016000206007019080519060200190612cef929190614379565b50600093505b600f6000876000191660001916815260200190815260200160002060000180549050841015612e1157600092505b600e6000876000191660001916815260200190815260200160002060030180549050831015612e0457600f6000876000191660001916815260200190815260200160002060070184815481101515612d7757fe5b90600052602060002001600f6000886000191660001916815260200190815260200160002060060184815481101515612dac57fe5b9060005260206000200185815481101515612dc357fe5b906000526020600020015490806001815401808255809150509060018203906000526020600020016000909192909190915055508280600101935050612d23565b8380600101945050612cf5565b6001600f6000886000191660001916815260200190815260200160002060080160006101000a81548160ff021916908315150217905550612f61565b600091505b600f6000876000191660001916815260200190815260200160002060000180549050821015612f6057600090505b600e6000876000191660001916815260200190815260200160002060030180549050811015612f5357600f6000876000191660001916815260200190815260200160002060060181815481101515612ed457fe5b9060005260206000200182815481101515612eeb57fe5b9060005260206000200154600f6000886000191660001916815260200190815260200160002060070183815481101515612f2157fe5b9060005260206000200182815481101515612f3857fe5b90600052602060002001819055508080600101915050612e80565b8180600101925050612e52565b5b6001945050505050919050565b606080606060026000856000191660001916815260200190815260200160002060009054906101000a900460ff16801561300e57503373ffffffffffffffffffffffffffffffffffffffff1660056000866000191660001916815260200190815260200160002060009054906101000a900473ffffffffffffffffffffffffffffffffffffffff1673ffffffffffffffffffffffffffffffffffffffff16145b80156130425750600e6000856000191660001916815260200190815260200160002060040160009054906101000a900460ff165b15156130b6576040517f08c379a000000000000000000000000000000000000000000000000000000000815260040180806020018281038252600d8152602001807f67657450726f664772616465730000000000000000000000000000000000000081525060200191505060405180910390fd5b600e6000856000191660001916815260200190815260200160002060030180548060200260200160405190810160405280929190818152602001828054801561312257602002820191906000526020600020905b8154600019168152602001906001019080831161310a575b50505050509250600f6000856000191660001916815260200190815260200160002060050180548060200260200160405190810160405280929190818152602001828054801561319157602002820191906000526020600020905b81548152602001906001019080831161317d575b50505050509150600f6000856000191660001916815260200190815260200160002060040180548060200260200160405190810160405280929190818152602001828054801561320057602002820191906000526020600020905b8154815260200190600101908083116131ec575b505050505090509193909250565b606080600080600060026000886000191660001916815260200190815260200160002060009054906101000a900460ff1680156132b157503373ffffffffffffffffffffffffffffffffffffffff1660056000896000191660001916815260200190815260200160002060009054906101000a900473ffffffffffffffffffffffffffffffffffffffff1673ffffffffffffffffffffffffffffffffffffffff16145b80156132e55750600e6000886000191660001916815260200190815260200160002060040160009054906101000a900460ff165b1515613359576040517f08c379a000000000000000000000000000000000000000000000000000000000815260040180806020018281038252600d8152602001807f67657450726f664772616465730000000000000000000000000000000000000081525060200191505060405180910390fd5b600e600088600019166000191681526020019081526020016000206003018054806020026020016040519081016040528092919081815260200182805480156133c557602002820191906000526020600020905b815460001916815260200190600101908083116133ad575b50505050509450600f60008860001916600019168152602001908152602001600020600b0160008760001916600019168152602001908152602001600020549150600090505b600f6000886000191660001916815260200190815260200160002060000180549050811015613549578560001916600f600089600019166000191681526020019081526020016000206000018281548110151561346457fe5b906000526020600020015460001916141561353c57600f60008860001916600019168152602001908152602001600020600201818154811015156134a457fe5b90600052602060002001549250600f60008860001916600019168152602001908152602001600020600701818154811015156134dc57fe5b9060005260206000200180548060200260200160405190810160405280929190818152602001828054801561353057602002820191906000526020600020905b81548152602001906001019080831161351c575b50505050509350613549565b808060010191505061340b565b5092959194509250565b6000606080606080606080606080600260008b6000191660001916815260200190815260200160002060009054906101000a900460ff16801561366c57503373ffffffffffffffffffffffffffffffffffffffff16600560008c6000191660001916815260200190815260200160002060009054906101000a900473ffffffffffffffffffffffffffffffffffffffff1673ffffffffffffffffffffffffffffffffffffffff16148061366b5750600e60008b6000191660001916815260200190815260200160002060060160003373ffffffffffffffffffffffffffffffffffffffff1673ffffffffffffffffffffffffffffffffffffffff16815260200190815260200160002060009054906101000a900460ff165b5b15156136e0576040517f08c379a000000000000000000000000000000000000000000000000000000000815260040180806020018281038252600e8152602001807f616464436f757273654d61726b7300000000000000000000000000000000000081525060200191505060405180910390fd5b600e60008b600019166000191681526020019081526020016000206003018054905060405190808252806020026020018201604052801561373557816020015b60608152602001906001900390816137205790505b5091506101206040519081016040528089815260200188815260200187815260200186815260200185815260200184815260200183815260200182815260200160001515815250600f60008c6000191660001916815260200190815260200160002060008201518160000190805190602001906137b3929190614326565b5060208201518160010190805190602001906137d09291906143d9565b5060408201518160020190805190602001906137ed9291906143d9565b50606082015181600301908051906020019061380a9291906143d9565b5060808201518160040190805190602001906138279291906143d9565b5060a08201518160050190805190602001906138449291906143d9565b5060c0820151816006019080519060200190613861929190614426565b5060e082015181600701908051906020019061387e929190614426565b506101008201518160080160006101000a81548160ff0219169083151502179055509050506001600e60008c6000191660001916815260200190815260200160002060040160006101000a81548160ff021916908315150217905550600198505050505050505050919050565b60008060026000856000191660001916815260200190815260200160002060009054906101000a900460ff16801561398957503373ffffffffffffffffffffffffffffffffffffffff1660056000866000191660001916815260200190815260200160002060009054906101000a900473ffffffffffffffffffffffffffffffffffffffff1673ffffffffffffffffffffffffffffffffffffffff16145b80156139bd5750600e6000856000191660001916815260200190815260200160002060040160009054906101000a900460ff165b1515613a31576040517f08c379a000000000000000000000000000000000000000000000000000000000815260040180806020018281038252600d8152602001807f736574576569676874616765730000000000000000000000000000000000000081525060200191505060405180910390fd5b8251600f6000866000191660001916815260200190815260200160002060000180549050141515613aca576040517f08c379a000000000000000000000000000000000000000000000000000000000815260040180806020018281038252600d8152602001807f736574576569676874616765730000000000000000000000000000000000000081525060200191505060405180910390fd5b82600f600086600019166000191681526020019081526020016000206001019080519060200190613afc929190614486565b50600090505b600f6000856000191660001916815260200190815260200160002060000180549050811015613bc0578281815181101515613b3957fe5b90602001906020020151600f60008660001916600019168152602001908152602001600020600b016000600f6000886000191660001916815260200190815260200160002060000184815481101515613b8e57fe5b906000526020600020015460001916600019168152602001908152602001600020819055508080600101915050613b02565b600191505092915050565b600060026000846000191660001916815260200190815260200160002060009054906101000a900460ff168015613c6857503373ffffffffffffffffffffffffffffffffffffffff1660056000856000191660001916815260200190815260200160002060009054906101000a900473ffffffffffffffffffffffffffffffffffffffff1673ffffffffffffffffffffffffffffffffffffffff16145b8015613c9c5750600e6000846000191660001916815260200190815260200160002060040160009054906101000a900460ff165b1515613d10576040517f08c379a000000000000000000000000000000000000000000000000000000000815260040180806020018281038252600f8152602001807f73657447726164654375746f666673000000000000000000000000000000000081525060200191505060405180910390fd5b60016008038251141515613d8c576040517f08c379a000000000000000000000000000000000000000000000000000000000815260040180806020018281038252600f8152602001807f73657447726164654375746f666673000000000000000000000000000000000081525060200191505060405180910390fd5b81600f600085600019166000191681526020019081526020016000206003019080519060200190613dbe929190614486565b506001905092915050565b6000806000806000806000806000600260008b6000191660001916815260200190815260200160002060009054906101000a900460ff168015613e7257503373ffffffffffffffffffffffffffffffffffffffff16600560008c6000191660001916815260200190815260200160002060009054906101000a900473ffffffffffffffffffffffffffffffffffffffff1673ffffffffffffffffffffffffffffffffffffffff16145b8015613ea65750600e60008b6000191660001916815260200190815260200160002060040160009054906101000a900460ff165b1515613f1a576040517f08c379a000000000000000000000000000000000000000000000000000000000815260040180806020018281038252600e8152602001807f63616c63756c617465546f74616c00000000000000000000000000000000000081525060200191505060405180910390fd5b6103e89750600096505b600f60008b600019166000191681526020019081526020016000206000018054905087101561412357600f60008b6000191660001916815260200190815260200160002060000187815481101515613f7857fe5b90600052602060002001549550600f60008b60001916600019168152602001908152602001600020600a0160008760001916600019168152602001908152602001600020600101549450600f60008b60001916600019168152602001908152602001600020600b0160008760001916600019168152602001908152602001600020549350600092505b600e60008b600019166000191681526020019081526020016000206003018054905083101561411657600e60008b600019166000191681526020019081526020016000206003018381548110151561405557fe5b90600052602060002001549150848489600f60008e60001916600019168152602001908152602001600020600a0160008a60001916600019168152602001908152602001600020600201600086600019166000191681526020019081526020016000205402028115156140c457fe5b04600f60008c60001916600019168152602001908152602001600020600c0160008460001916600019168152602001908152602001600020600082825401925050819055508280600101935050614001565b8680600101975050613f24565b600090505b600e60008b60001916600019168152602001908152602001600020600301805490508110156142955787600f60008c60001916600019168152602001908152602001600020600c016000600e60008e600019166000191681526020019081526020016000206003018481548110151561419d57fe5b90600052602060002001546000191660001916815260200190815260200160002060008282548115156141cc57fe5b0492505081905550600f60008b60001916600019168152602001908152602001600020600501600f60008c60001916600019168152602001908152602001600020600c016000600e60008e600019166000191681526020019081526020016000206003018481548110151561423d57fe5b9060005260206000200154600019166000191681526020019081526020016000205490806001815401808255809150509060018203906000526020600020016000909192909190915055508080600101915050614128565b600198505050505050505050919050565b828054600181600116156101000203166002900490600052602060002090601f016020900481019282601f106142e757805160ff1916838001178555614315565b82800160010185558215614315579182015b828111156143145782518255916020019190600101906142f9565b5b50905061432291906144d3565b5090565b828054828255906000526020600020908101928215614368579160200282015b82811115614367578251829060001916905591602001919060010190614346565b5b50905061437591906144f8565b5090565b8280548282559060005260206000209081019282156143c8579160200282015b828111156143c75782518290805190602001906143b79291906143d9565b5091602001919060010190614399565b5b5090506143d5919061451d565b5090565b828054828255906000526020600020908101928215614415579160200282015b828111156144145782518255916020019190600101906143f9565b5b50905061442291906144d3565b5090565b828054828255906000526020600020908101928215614475579160200282015b828111156144745782518290805190602001906144649291906143d9565b5091602001919060010190614446565b5b509050614482919061451d565b5090565b8280548282559060005260206000209081019282156144c2579160200282015b828111156144c15782518255916020019190600101906144a6565b5b5090506144cf91906144d3565b5090565b6144f591905b808211156144f15760008160009055506001016144d9565b5090565b90565b61451a91905b808211156145165760008160009055506001016144fe565b5090565b90565b61454691905b8082111561454257600081816145399190614549565b50600101614523565b5090565b90565b508054600082559060005260206000209081019061456791906144d3565b505600a165627a7a72305820dc0542be510dae5bfe24f906ff336b2a26a68b525dfa13de7ba3cd61f3fbbed80029",
  "source": "pragma solidity ^0.4.26;\n\ncontract Grader {\n    address private admin;\n    bytes32[] private courseIDList;\n    mapping(bytes32 => bool) courseIds;\n    address[] private instructorsList;\n    mapping(address => bool) instructors;\n    mapping(bytes32 => address) courseInstructor;\n    uint[8] gradeChart = [10, 9, 8, 7, 6, 5, 4, 0];\n\n    constructor() public {\n        admin = msg.sender;\n    }\n\n    function kill() public {\n        require(msg.sender == admin);\n        selfdestruct(admin);\n    }\n\n    struct Exam {\n        bytes32 examID;\n        uint maxMarks;\n        mapping (bytes32 => uint) marks;\n    }\n\n    struct Course {\n        bytes32 courseID;\n        string courseName;\n        address instructor;\n        bytes32[] rollList;\n        bool marksExist;\n        mapping (bytes32 => bool) rollNoVer;\n        mapping (address => bool) TAs;\n        mapping (bytes32 => address) students;\n        mapping (address => bool) studentAddrVer;\n    }\n\n    struct Marks {\n        bytes32[] examIDList;\n        uint[] weightageList;\n        uint[] maxMarksList;\n        uint[] gradeCutoffs;\n        uint[] gradeList;\n        uint[] totalMarksList;\n        uint[][] marksList;\n        uint[][] invMarksList;\n        bool invMarksExist;\n        mapping (bytes32 => bool) examIds;\n        mapping (bytes32 => Exam) exams;\n        mapping (bytes32 => uint) weightage;\n        mapping (bytes32 => uint) totalMarks;\n        mapping (bytes32 => uint) grades;\n    }\n\n    mapping(bytes32 => Course) courses;\n    mapping(bytes32 => Marks) courseMarks;\n\n    function addInstructor(address[] instrlist) public returns (bool added) {\n        require (msg.sender == admin, \"addInstructor\");\n        for (uint i = 0; i < instrlist.length; i++){\n            if(!instructors[instrlist[i]]){\n                instructorsList.push(instrlist[i]);\n                instructors[instrlist[i]] = true;\n            }\n        }\n        added = true;\n    }\n\n    function getInstructorsList() public view returns (address[] instrList) {\n      require (msg.sender == admin, \"getInstrcutorsList\");\n      instrList = instructorsList;\n    }\n\n    function addCourse(bytes32 courseID, string courseName, bytes32[] rollList, address[] studAddr, address[] TAs) public returns (bool added) {\n        require (instructors[msg.sender] && (!courseIds[courseID]), \"addCourse\");\n        require (rollList.length == studAddr.length, \"addCourse\");\n        courseInstructor[courseID] = msg.sender;\n        courseIds[courseID] = true;\n        courseIDList.push(courseID);\n        courses[courseID] = Course(courseID, courseName, msg.sender, rollList, false);\n        for (uint i = 0; i < rollList.length; i++) {\n            if (!courses[courseID].studentAddrVer[studAddr[i]]) {\n                courses[courseID].students[rollList[i]] = studAddr[i];\n                courses[courseID].studentAddrVer[studAddr[i]] = true;\n            }\n            if (!courses[courseID].rollNoVer[rollList[i]])\n                courses[courseID].rollNoVer[rollList[i]] = true;\n        }\n        for (uint j = 0; j < TAs.length; j++)\n                courses[courseID].TAs[TAs[j]] = true;\n        added = true;\n    }\n\n    function addCourseMarks(bytes32 courseID) private returns (bool added) {\n        require (courseIds[courseID] && ((courseInstructor[courseID] == msg.sender) || courses[courseID].TAs[msg.sender]), \"addCourseMarks\");\n        bytes32[] memory examIDList;\n        uint[] memory weightageList;\n        uint[] memory maxMarksList;\n        uint[] memory gradeCutoffs;\n        uint[] memory gradeList;\n        uint[] memory totalMarksList;\n        uint[][] memory marksList = new uint[][] (courses[courseID].rollList.length);\n        uint[][] memory invMarksList;\n        courseMarks[courseID] = Marks(examIDList, weightageList,maxMarksList,gradeCutoffs,gradeList,totalMarksList,marksList,invMarksList,false);\n        courses[courseID].marksExist = true;\n        added = true;\n    }\n\n    function addExam(bytes32 courseID, bytes32 examID, uint maxMarks, bytes32[] rollList, uint[] marksList) public returns (bool added) {\n        require (courseIds[courseID] && ((courseInstructor[courseID] == msg.sender) || courses[courseID].TAs[msg.sender]), \"addExam\");\n        require (marksList.length == rollList.length, \"addExam\");\n        if (!courses[courseID].marksExist)\n            addCourseMarks(courseID);\n        require(!courseMarks[courseID].examIds[examID], \"addExam\");\n        courseMarks[courseID].examIds[examID] = true;\n        courseMarks[courseID].examIDList.push(examID);\n        courseMarks[courseID].maxMarksList.push(maxMarks);\n        courseMarks[courseID].exams[examID] = Exam(examID, maxMarks);\n        for (uint k = 0; k < rollList.length; k++) {\n            courseMarks[courseID].exams[examID].marks[rollList[k]] = marksList[k];\n        }\n        for (uint i = 0; i < courses[courseID].rollList.length; i++) {\n            courseMarks[courseID].marksList[i].push(courseMarks[courseID].exams[examID].marks[courses[courseID].rollList[i]]);\n        }\n        added = true;\n    }\n\n    function updateMarks(bytes32 courseID, bytes32 examID, bytes32[] rollList, uint[] marksList) public returns (bool added) {\n        require (courseIds[courseID] && ((courseInstructor[courseID] == msg.sender) || courses[courseID].TAs[msg.sender]) && courses[courseID].marksExist && courseMarks[courseID].examIds[examID], \"updateMarks\");\n        require (marksList.length == rollList.length, \"updateMarks\");\n        for (uint k = 0; k < rollList.length; k++) {\n            courseMarks[courseID].exams[examID].marks[rollList[k]] = marksList[k];\n        }\n        for (uint i = 0; i < courses[courseID].rollList.length; i++) {\n            bytes32 roll_no = courses[courseID].rollList[i];\n            for (uint j = 0; j < courseMarks[courseID].examIDList.length; j++) {\n                if (courseMarks[courseID].examIDList[j] == examID) {\n                    courseMarks[courseID].marksList[i][j] = courseMarks[courseID].exams[examID].marks[roll_no];\n                }\n            }\n        }\n        added = true;\n    }\n\n    function setWeightages(bytes32 courseID, uint[] weightageList) private returns (bool added) {\n        require (courseIds[courseID] && (courseInstructor[courseID] == msg.sender) && courses[courseID].marksExist, \"setWeightages\");\n        require (courseMarks[courseID].examIDList.length == weightageList.length, \"setWeightages\");\n        courseMarks[courseID].weightageList = weightageList;\n        for (uint i = 0; i < courseMarks[courseID].examIDList.length; i++)\n            courseMarks[courseID].weightage[courseMarks[courseID].examIDList[i]] = weightageList[i];\n        added = true;\n    }\n\n    function setGradeCutoffs(bytes32 courseID, uint[] gradeCutoffs) private returns (bool added) {\n        require (courseIds[courseID] && (courseInstructor[courseID] == msg.sender) && courses[courseID].marksExist, \"setGradeCutoffs\");\n        require (gradeCutoffs.length == (gradeChart.length - 1), \"setGradeCutoffs\");\n        courseMarks[courseID].gradeCutoffs = gradeCutoffs;\n        added = true;\n    }\n\n    function calculateTotal (bytes32 courseID) private returns (bool added) {\n        require (courseIds[courseID] && (courseInstructor[courseID] == msg.sender) && courses[courseID].marksExist, \"calculateTotal\");\n        uint pres = 1000;\n        for (uint i = 0; i < courseMarks[courseID].examIDList.length; i++) {\n            bytes32 exam_id = courseMarks[courseID].examIDList[i];\n            uint maxmarks = courseMarks[courseID].exams[exam_id].maxMarks;\n            uint weightage = courseMarks[courseID].weightage[exam_id];\n            for (uint j = 0; j < courses[courseID].rollList.length; j++) {\n                  bytes32 roll_no = courses[courseID].rollList[j];\n                  courseMarks[courseID].totalMarks[roll_no] += ((courseMarks[courseID].exams[exam_id].marks[roll_no] * pres * weightage)/maxmarks);\n            }\n        }\n        for (uint k = 0; k < courses[courseID].rollList.length; k++) {\n              courseMarks[courseID].totalMarks[courses[courseID].rollList[k]] /= pres;\n              courseMarks[courseID].totalMarksList.push(courseMarks[courseID].totalMarks[courses[courseID].rollList[k]]);\n        }\n        added = true;\n    }\n\n    function calculateGrades (bytes32 courseID, uint[] weightageList, uint[] gradeCutoffs) public returns (bool added) {\n        require (courseIds[courseID] && (courseInstructor[courseID] == msg.sender) && courses[courseID].marksExist, \"calculateGrades\");\n        setWeightages(courseID, weightageList);\n        setGradeCutoffs(courseID, gradeCutoffs);\n        calculateTotal(courseID);\n        for (uint i = 0; i < courses[courseID].rollList.length; i++) {\n            for (uint j = 0; j < courseMarks[courseID].gradeCutoffs.length; j++) {\n                bytes32 roll_no = courses[courseID].rollList[i];\n                if (courseMarks[courseID].totalMarks[roll_no] >= courseMarks[courseID].gradeCutoffs[j]) {\n                    courseMarks[courseID].gradeList.push(gradeChart[j]);\n                    courseMarks[courseID].grades[roll_no] = gradeChart[j];\n                    break;\n                }\n            }\n        }\n        added = true;\n    }\n\n    function getProfExamWeightages (bytes32 courseID) public view returns (bytes32[] examslist, uint[] maxMarkslist, uint[] weightages) {\n        require (courseIds[courseID] && (courseInstructor[courseID] == msg.sender) && courses[courseID].marksExist, \"getProfExamWeightages\");\n        examslist = courseMarks[courseID].examIDList;\n        maxMarkslist = courseMarks[courseID].maxMarksList;\n        weightages = courseMarks[courseID].weightageList;\n    }\n\n    function getInverseMarks (bytes32 courseID) public returns (bool added){\n        require (courseIds[courseID] && (courseInstructor[courseID] == msg.sender) && courses[courseID].marksExist, \"getProfGrades\");\n        if (!courseMarks[courseID].invMarksExist) {\n          courseMarks[courseID].invMarksList = new uint[][] (courseMarks[courseID].examIDList.length);\n          for (uint j = 0; j < courseMarks[courseID].examIDList.length; j++)\n              for (uint i = 0; i < courses[courseID].rollList.length; i++)\n                      courseMarks[courseID].invMarksList[j].push(courseMarks[courseID].marksList[i][j]);\n          courseMarks[courseID].invMarksExist = true;\n        }\n        else {\n          for (uint q = 0; q < courseMarks[courseID].examIDList.length; q++)\n              for (uint p = 0; p < courses[courseID].rollList.length; p++)\n                      courseMarks[courseID].invMarksList[q][p] = courseMarks[courseID].marksList[p][q];\n        }\n        added = true;\n    }\n\n    function getProfExamMarks (bytes32 courseID, bytes32 examID) public view returns (bytes32[] rolllist, uint[] markslist, uint maxmarks, uint weightage) {\n        require (courseIds[courseID] && (courseInstructor[courseID] == msg.sender) && courses[courseID].marksExist, \"getProfGrades\");\n        rolllist = courses[courseID].rollList;\n        weightage = courseMarks[courseID].weightage[examID];\n        for (uint i = 0; i < courseMarks[courseID].examIDList.length; i++) {\n          if (courseMarks[courseID].examIDList[i] == examID) {\n              maxmarks = courseMarks[courseID].maxMarksList[i];\n              markslist = courseMarks[courseID].invMarksList[i];\n              break;\n          }\n        }\n    }\n\n    function getStudentMarksGrades (bytes32 courseID, bytes32 rollNo) public view returns (bytes32[] examslist, uint[] weightages, uint[] maxMarkslist, uint[] markslist, uint totalmarks, uint grade) {\n        require (courseIds[courseID] && ((courseInstructor[courseID] == msg.sender) || courses[courseID].studentAddrVer[msg.sender]) && courses[courseID].rollNoVer[rollNo] && courses[courseID].marksExist, \"getStudentMarks\");\n        examslist = courseMarks[courseID].examIDList;\n        weightages = courseMarks[courseID].weightageList;\n        maxMarkslist = courseMarks[courseID].maxMarksList;\n        for (uint i = 0; i < courses[courseID].rollList.length; i++) {\n            if (courses[courseID].rollList[i] == rollNo)\n                markslist = courseMarks[courseID].marksList[i];\n        }\n        totalmarks = courseMarks[courseID].totalMarks[rollNo];\n        grade = courseMarks[courseID].grades[rollNo];\n    }\n\n    function getProfMarksGrades (bytes32 courseID) public view returns (bytes32[] rolllist, uint[] totalmarks, uint[] gradelist) {\n        require (courseIds[courseID] && (courseInstructor[courseID] == msg.sender) && courses[courseID].marksExist, \"getProfGrades\");\n        rolllist = courses[courseID].rollList;\n        totalmarks = courseMarks[courseID].totalMarksList;\n        gradelist = courseMarks[courseID].gradeList;\n    }\n}\n",
  "sourcePath": "/home/tpb/blockchain/project/decentralised-grading-system/contracts/Grader.sol",
  "compiler": {
    "name": "solc",
    "version": "0.4.26+commit.4563c3fc.Emscripten.clang"
  },
  "schemaVersion": "3.0.16",
  "updatedAt": "2019-10-15T23:36:00.737Z",
  "devdoc": {
    "methods": {}
  },
  "userdoc": {
    "methods": {}
  }
}