{
  "contractName": "Grader",
  "abi": [
    {
      "constant": true,
      "inputs": [
        {
          "name": "",
          "type": "uint256"
        }
      ],
      "name": "courseIDList",
      "outputs": [
        {
          "name": "",
          "type": "bytes32"
        }
      ],
      "payable": false,
      "stateMutability": "view",
      "type": "function"
    },
    {
      "constant": true,
      "inputs": [
        {
          "name": "",
          "type": "uint256"
        }
      ],
      "name": "instructorsList",
      "outputs": [
        {
          "name": "",
          "type": "address"
        }
      ],
      "payable": false,
      "stateMutability": "view",
      "type": "function"
    },
    {
      "constant": true,
      "inputs": [],
      "name": "admin",
      "outputs": [
        {
          "name": "",
          "type": "address"
        }
      ],
      "payable": false,
      "stateMutability": "view",
      "type": "function"
    },
    {
      "inputs": [],
      "payable": false,
      "stateMutability": "nonpayable",
      "type": "constructor"
    },
    {
      "constant": false,
      "inputs": [],
      "name": "kill",
      "outputs": [],
      "payable": false,
      "stateMutability": "nonpayable",
      "type": "function"
    },
    {
      "constant": false,
      "inputs": [
        {
          "name": "instrlist",
          "type": "address[]"
        }
      ],
      "name": "addInstructor",
      "outputs": [
        {
          "name": "added",
          "type": "bool"
        }
      ],
      "payable": false,
      "stateMutability": "nonpayable",
      "type": "function"
    },
    {
      "constant": false,
      "inputs": [
        {
          "name": "courseID",
          "type": "bytes32"
        },
        {
          "name": "courseName",
          "type": "string"
        },
        {
          "name": "rollList",
          "type": "bytes32[]"
        },
        {
          "name": "studAddr",
          "type": "address[]"
        },
        {
          "name": "TAs",
          "type": "address[]"
        }
      ],
      "name": "addCourse",
      "outputs": [
        {
          "name": "added",
          "type": "bool"
        }
      ],
      "payable": false,
      "stateMutability": "nonpayable",
      "type": "function"
    },
    {
      "constant": false,
      "inputs": [
        {
          "name": "courseID",
          "type": "bytes32"
        },
        {
          "name": "examID",
          "type": "bytes32"
        },
        {
          "name": "maxMarks",
          "type": "uint256"
        },
        {
          "name": "rollList",
          "type": "bytes32[]"
        },
        {
          "name": "marksList",
          "type": "uint256[]"
        }
      ],
      "name": "addExam",
      "outputs": [
        {
          "name": "added",
          "type": "bool"
        }
      ],
      "payable": false,
      "stateMutability": "nonpayable",
      "type": "function"
    },
    {
      "constant": false,
      "inputs": [
        {
          "name": "courseID",
          "type": "bytes32"
        },
        {
          "name": "examID",
          "type": "bytes32"
        },
        {
          "name": "rollList",
          "type": "bytes32[]"
        },
        {
          "name": "marksList",
          "type": "uint256[]"
        }
      ],
      "name": "updateMarks",
      "outputs": [
        {
          "name": "added",
          "type": "bool"
        }
      ],
      "payable": false,
      "stateMutability": "nonpayable",
      "type": "function"
    },
    {
      "constant": false,
      "inputs": [
        {
          "name": "courseID",
          "type": "bytes32"
        },
        {
          "name": "weightageList",
          "type": "uint256[]"
        },
        {
          "name": "gradeCutoffs",
          "type": "uint256[]"
        }
      ],
      "name": "calculateGrades",
      "outputs": [
        {
          "name": "added",
          "type": "bool"
        }
      ],
      "payable": false,
      "stateMutability": "nonpayable",
      "type": "function"
    },
    {
      "constant": true,
      "inputs": [
        {
          "name": "courseID",
          "type": "bytes32"
        }
      ],
      "name": "getProfExamWeightages",
      "outputs": [
        {
          "name": "examslist",
          "type": "bytes32[]"
        },
        {
          "name": "maxMarkslist",
          "type": "uint256[]"
        },
        {
          "name": "weightages",
          "type": "uint256[]"
        }
      ],
      "payable": false,
      "stateMutability": "view",
      "type": "function"
    },
    {
      "constant": false,
      "inputs": [
        {
          "name": "courseID",
          "type": "bytes32"
        }
      ],
      "name": "getInverseMarks",
      "outputs": [
        {
          "name": "added",
          "type": "bool"
        }
      ],
      "payable": false,
      "stateMutability": "nonpayable",
      "type": "function"
    },
    {
      "constant": true,
      "inputs": [
        {
          "name": "courseID",
          "type": "bytes32"
        },
        {
          "name": "examID",
          "type": "bytes32"
        }
      ],
      "name": "getProfExamMarks",
      "outputs": [
        {
          "name": "rolllist",
          "type": "bytes32[]"
        },
        {
          "name": "markslist",
          "type": "uint256[]"
        },
        {
          "name": "maxmarks",
          "type": "uint256"
        },
        {
          "name": "weightage",
          "type": "uint256"
        }
      ],
      "payable": false,
      "stateMutability": "view",
      "type": "function"
    },
    {
      "constant": true,
      "inputs": [
        {
          "name": "courseID",
          "type": "bytes32"
        },
        {
          "name": "rollNo",
          "type": "bytes32"
        }
      ],
      "name": "getStudentMarksGrades",
      "outputs": [
        {
          "name": "examslist",
          "type": "bytes32[]"
        },
        {
          "name": "weightages",
          "type": "uint256[]"
        },
        {
          "name": "maxMarkslist",
          "type": "uint256[]"
        },
        {
          "name": "markslist",
          "type": "uint256[]"
        },
        {
          "name": "totalmarks",
          "type": "uint256"
        },
        {
          "name": "grade",
          "type": "uint256"
        }
      ],
      "payable": false,
      "stateMutability": "view",
      "type": "function"
    },
    {
      "constant": true,
      "inputs": [
        {
          "name": "courseID",
          "type": "bytes32"
        }
      ],
      "name": "getProfMarksGrades",
      "outputs": [
        {
          "name": "rolllist",
          "type": "bytes32[]"
        },
        {
          "name": "totalmarks",
          "type": "uint256[]"
        },
        {
          "name": "gradelist",
          "type": "uint256[]"
        }
      ],
      "payable": false,
      "stateMutability": "view",
      "type": "function"
    }
  ],
  "bytecode": "0x608060405261010060405190810160405280600a60ff168152602001600960ff168152602001600860ff168152602001600760ff168152602001600660ff168152602001600560ff168152602001600460ff168152602001600060ff16815250600690600862000071929190620000c6565b503480156200007f57600080fd5b50336000806101000a81548173ffffffffffffffffffffffffffffffffffffffff021916908373ffffffffffffffffffffffffffffffffffffffff16021790555062000138565b8260088101928215620000fd579160200282015b82811115620000fc578251829060ff16905591602001919060010190620000da565b5b5090506200010c919062000110565b5090565b6200013591905b808211156200013157600081600090555060010162000117565b5090565b90565b61458180620001486000396000f3006080604052600436106100d0576000357c0100000000000000000000000000000000000000000000000000000000900463ffffffff168063018e2ef4146100d557806304c40a461461022d57806322b086f81461030a57806338045e3a1461048457806341c0e1b5146105025780635d683a6414610519578063656072b8146106005780638e9fbd95146106cf578063abff93bd146107e5578063b2c593471461082e578063e9968f9214610944578063eca760c01461098d578063f5f31ae0146109fa578063f851a44014610ae4575b600080fd5b3480156100e157600080fd5b506102136004803603810190808035600019169060200190929190803590602001908201803590602001908080601f0160208091040260200160405190810160405280939291908181526020018383808284378201915050505050509192919290803590602001908201803590602001908080602002602001604051908101604052809392919081815260200183836020028082843782019150505050505091929192908035906020019082018035906020019080806020026020016040519081016040528093929190818152602001838360200280828437820191505050505050919291929080359060200190820180359060200190808060200260200160405190810160405280939291908181526020018383602002808284378201915050505050509192919290505050610b3b565b604051808215151515815260200191505060405180910390f35b34801561023957600080fd5b506102f06004803603810190808035600019169060200190929190803560001916906020019092919080359060200190820180359060200190808060200260200160405190810160405280939291908181526020018383602002808284378201915050505050509192919290803590602001908201803590602001908080602002602001604051908101604052809392919081815260200183836020028082843782019150505050505091929192905050506111d0565b604051808215151515815260200191505060405180910390f35b34801561031657600080fd5b506103476004803603810190808035600019169060200190929190803560001916906020019092919050505061169a565b604051808060200180602001806020018060200187815260200186815260200185810385528b818151815260200191508051906020019060200280838360005b838110156103a2578082015181840152602081019050610387565b5050505090500185810384528a818151815260200191508051906020019060200280838360005b838110156103e45780820151818401526020810190506103c9565b50505050905001858103835289818151815260200191508051906020019060200280838360005b8381101561042657808201518184015260208101905061040b565b50505050905001858103825288818151815260200191508051906020019060200280838360005b8381101561046857808201518184015260208101905061044d565b505050509050019a505050505050505050505060405180910390f35b34801561049057600080fd5b506104e860048036038101908080359060200190820180359060200190808060200260200160405190810160405280939291908181526020018383602002808284378201915050505050509192919290505050611b7c565b604051808215151515815260200191505060405180910390f35b34801561050e57600080fd5b50610517611dbf565b005b34801561052557600080fd5b506105e660048036038101908080356000191690602001909291908035600019169060200190929190803590602001909291908035906020019082018035906020019080806020026020016040519081016040528093929190818152602001838360200280828437820191505050505050919291929080359060200190820180359060200190808060200260200160405190810160405280939291908181526020018383602002808284378201915050505050509192919290505050611e54565b604051808215151515815260200191505060405180910390f35b34801561060c57600080fd5b506106b56004803603810190808035600019169060200190929190803590602001908201803590602001908080602002602001604051908101604052809392919081815260200183836020028082843782019150505050505091929192908035906020019082018035906020019080806020026020016040519081016040528093929190818152602001838360200280828437820191505050505050919291929050505061246d565b604051808215151515815260200191505060405180910390f35b3480156106db57600080fd5b506106fe60048036038101908080356000191690602001909291905050506127b0565b60405180806020018060200180602001848103845287818151815260200191508051906020019060200280838360005b8381101561074957808201518184015260208101905061072e565b50505050905001848103835286818151815260200191508051906020019060200280838360005b8381101561078b578082015181840152602081019050610770565b50505050905001848103825285818151815260200191508051906020019060200280838360005b838110156107cd5780820151818401526020810190506107b2565b50505050905001965050505050505060405180910390f35b3480156107f157600080fd5b506108146004803603810190808035600019169060200190929190505050612a50565b604051808215151515815260200191505060405180910390f35b34801561083a57600080fd5b5061085d6004803603810190808035600019169060200190929190505050612ed3565b60405180806020018060200180602001848103845287818151815260200191508051906020019060200280838360005b838110156108a857808201518184015260208101905061088d565b50505050905001848103835286818151815260200191508051906020019060200280838360005b838110156108ea5780820151818401526020810190506108cf565b50505050905001848103825285818151815260200191508051906020019060200280838360005b8381101561092c578082015181840152602081019050610911565b50505050905001965050505050505060405180910390f35b34801561095057600080fd5b5061096f60048036038101908080359060200190929190505050613173565b60405180826000191660001916815260200191505060405180910390f35b34801561099957600080fd5b506109b860048036038101908080359060200190929190505050613196565b604051808273ffffffffffffffffffffffffffffffffffffffff1673ffffffffffffffffffffffffffffffffffffffff16815260200191505060405180910390f35b348015610a0657600080fd5b50610a37600480360381019080803560001916906020019092919080356000191690602001909291905050506131d4565b604051808060200180602001858152602001848152602001838103835287818151815260200191508051906020019060200280838360005b83811015610a8a578082015181840152602081019050610a6f565b50505050905001838103825286818151815260200191508051906020019060200280838360005b83811015610acc578082015181840152602081019050610ab1565b50505050905001965050505050505060405180910390f35b348015610af057600080fd5b50610af9613519565b604051808273ffffffffffffffffffffffffffffffffffffffff1673ffffffffffffffffffffffffffffffffffffffff16815260200191505060405180910390f35b6000806000600460003373ffffffffffffffffffffffffffffffffffffffff1673ffffffffffffffffffffffffffffffffffffffff16815260200190815260200160002060009054906101000a900460ff168015610bbf575060026000896000191660001916815260200190815260200160002060009054906101000a900460ff16155b1515610c33576040517f08c379a00000000000000000000000000000000000000000000000000000000081526004018080602001828103825260098152602001807f616464436f75727365000000000000000000000000000000000000000000000081525060200191505060405180910390fd5b84518651141515610cac576040517f08c379a00000000000000000000000000000000000000000000000000000000081526004018080602001828103825260098152602001807f616464436f75727365000000000000000000000000000000000000000000000081525060200191505060405180910390fd5b33600560008a6000191660001916815260200190815260200160002060006101000a81548173ffffffffffffffffffffffffffffffffffffffff021916908373ffffffffffffffffffffffffffffffffffffffff1602179055506001600260008a6000191660001916815260200190815260200160002060006101000a81548160ff021916908315150217905550600188908060018154018082558091505090600182039060005260206000200160009091929091909150906000191690555060a060405190810160405280896000191681526020018881526020013373ffffffffffffffffffffffffffffffffffffffff16815260200187815260200160001515815250600e60008a60001916600019168152602001908152602001600020600082015181600001906000191690556020820151816001019080519060200190610df8929190614291565b5060408201518160020160006101000a81548173ffffffffffffffffffffffffffffffffffffffff021916908373ffffffffffffffffffffffffffffffffffffffff1602179055506060820151816003019080519060200190610e5c929190614311565b5060808201518160040160006101000a81548160ff021916908315150217905550905050600091505b855182101561111b57600e6000896000191660001916815260200190815260200160002060080160008684815181101515610ebc57fe5b9060200190602002015173ffffffffffffffffffffffffffffffffffffffff1673ffffffffffffffffffffffffffffffffffffffff16815260200190815260200160002060009054906101000a900460ff161515611044578482815181101515610f2257fe5b90602001906020020151600e60008a6000191660001916815260200190815260200160002060070160008885815181101515610f5a57fe5b906020019060200201516000191660001916815260200190815260200160002060006101000a81548173ffffffffffffffffffffffffffffffffffffffff021916908373ffffffffffffffffffffffffffffffffffffffff1602179055506001600e60008a6000191660001916815260200190815260200160002060080160008785815181101515610fe857fe5b9060200190602002015173ffffffffffffffffffffffffffffffffffffffff1673ffffffffffffffffffffffffffffffffffffffff16815260200190815260200160002060006101000a81548160ff0219169083151502179055505b600e600089600019166000191681526020019081526020016000206005016000878481518110151561107257fe5b906020019060200201516000191660001916815260200190815260200160002060009054906101000a900460ff16151561110e576001600e60008a60001916600019168152602001908152602001600020600501600088858151811015156110d657fe5b906020019060200201516000191660001916815260200190815260200160002060006101000a81548160ff0219169083151502179055505b8180600101925050610e85565b600090505b83518110156111c1576001600e60008a600019166000191681526020019081526020016000206006016000868481518110151561115957fe5b9060200190602002015173ffffffffffffffffffffffffffffffffffffffff1673ffffffffffffffffffffffffffffffffffffffff16815260200190815260200160002060006101000a81548160ff0219169083151502179055508080600101915050611120565b60019250505095945050505050565b6000806000806000600260008a6000191660001916815260200190815260200160002060009054906101000a900460ff1680156112e357503373ffffffffffffffffffffffffffffffffffffffff16600560008b6000191660001916815260200190815260200160002060009054906101000a900473ffffffffffffffffffffffffffffffffffffffff1673ffffffffffffffffffffffffffffffffffffffff1614806112e25750600e60008a6000191660001916815260200190815260200160002060060160003373ffffffffffffffffffffffffffffffffffffffff1673ffffffffffffffffffffffffffffffffffffffff16815260200190815260200160002060009054906101000a900460ff165b5b80156113175750600e60008a6000191660001916815260200190815260200160002060040160009054906101000a900460ff165b80156113645750600f60008a600019166000191681526020019081526020016000206009016000896000191660001916815260200190815260200160002060009054906101000a900460ff165b15156113d8576040517f08c379a000000000000000000000000000000000000000000000000000000000815260040180806020018281038252600b8152602001807f7570646174654d61726b7300000000000000000000000000000000000000000081525060200191505060405180910390fd5b86518651141515611451576040517f08c379a000000000000000000000000000000000000000000000000000000000815260040180806020018281038252600b8152602001807f7570646174654d61726b7300000000000000000000000000000000000000000081525060200191505060405180910390fd5b600093505b86518410156114f257858481518110151561146d57fe5b90602001906020020151600f60008b60001916600019168152602001908152602001600020600a0160008a60001916600019168152602001908152602001600020600201600089878151811015156114c157fe5b9060200190602002015160001916600019168152602001908152602001600020819055508380600101945050611456565b600092505b600e60008a600019166000191681526020019081526020016000206003018054905083101561168a57600e60008a600019166000191681526020019081526020016000206003018381548110151561154b57fe5b90600052602060002001549150600090505b600f60008a600019166000191681526020019081526020016000206000018054905081101561167d578760001916600f60008b60001916600019168152602001908152602001600020600001828154811015156115b657fe5b906000526020600020015460001916141561167057600f60008a60001916600019168152602001908152602001600020600a01600089600019166000191681526020019081526020016000206002016000836000191660001916815260200190815260200160002054600f60008b600019166000191681526020019081526020016000206006018481548110151561164a57fe5b906000526020600020018281548110151561166157fe5b90600052602060002001819055505b808060010191505061155d565b82806001019350506114f7565b6001945050505050949350505050565b6060806060806000806000600260008a6000191660001916815260200190815260200160002060009054906101000a900460ff1680156117b057503373ffffffffffffffffffffffffffffffffffffffff16600560008b6000191660001916815260200190815260200160002060009054906101000a900473ffffffffffffffffffffffffffffffffffffffff1673ffffffffffffffffffffffffffffffffffffffff1614806117af5750600e60008a6000191660001916815260200190815260200160002060080160003373ffffffffffffffffffffffffffffffffffffffff1673ffffffffffffffffffffffffffffffffffffffff16815260200190815260200160002060009054906101000a900460ff165b5b80156117fd5750600e60008a600019166000191681526020019081526020016000206005016000896000191660001916815260200190815260200160002060009054906101000a900460ff165b80156118315750600e60008a6000191660001916815260200190815260200160002060040160009054906101000a900460ff165b15156118a5576040517f08c379a000000000000000000000000000000000000000000000000000000000815260040180806020018281038252600f8152602001807f67657453747564656e744d61726b73000000000000000000000000000000000081525060200191505060405180910390fd5b600f60008a6000191660001916815260200190815260200160002060000180548060200260200160405190810160405280929190818152602001828054801561191157602002820191906000526020600020905b815460001916815260200190600101908083116118f9575b50505050509650600f60008a6000191660001916815260200190815260200160002060010180548060200260200160405190810160405280929190818152602001828054801561198057602002820191906000526020600020905b81548152602001906001019080831161196c575b50505050509550600f60008a600019166000191681526020019081526020016000206002018054806020026020016040519081016040528092919081815260200182805480156119ef57602002820191906000526020600020905b8154815260200190600101908083116119db575b50505050509450600090505b600e60008a6000191660001916815260200190815260200160002060030180549050811015611afd578760001916600e60008b6000191660001916815260200190815260200160002060030182815481101515611a5457fe5b9060005260206000200154600019161415611af057600f60008a6000191660001916815260200190815260200160002060060181815481101515611a9457fe5b90600052602060002001805480602002602001604051908101604052809291908181526020018280548015611ae857602002820191906000526020600020905b815481526020019060010190808311611ad4575b505050505093505b80806001019150506119fb565b600f60008a60001916600019168152602001908152602001600020600c0160008960001916600019168152602001908152602001600020549250600f60008a60001916600019168152602001908152602001600020600d0160008960001916600019168152602001908152602001600020549150509295509295509295565b6000806000809054906101000a900473ffffffffffffffffffffffffffffffffffffffff1673ffffffffffffffffffffffffffffffffffffffff163373ffffffffffffffffffffffffffffffffffffffff16141515611c43576040517f08c379a000000000000000000000000000000000000000000000000000000000815260040180806020018281038252600d8152602001807f616464496e7374727563746f720000000000000000000000000000000000000081525060200191505060405180910390fd5b600090505b8251811015611db557600460008483815181101515611c6357fe5b9060200190602002015173ffffffffffffffffffffffffffffffffffffffff1673ffffffffffffffffffffffffffffffffffffffff16815260200190815260200160002060009054906101000a900460ff161515611da85760038382815181101515611ccb57fe5b9060200190602002015190806001815401808255809150509060018203906000526020600020016000909192909190916101000a81548173ffffffffffffffffffffffffffffffffffffffff021916908373ffffffffffffffffffffffffffffffffffffffff160217905550506001600460008584815181101515611d4c57fe5b9060200190602002015173ffffffffffffffffffffffffffffffffffffffff1673ffffffffffffffffffffffffffffffffffffffff16815260200190815260200160002060006101000a81548160ff0219169083151502179055505b8080600101915050611c48565b6001915050919050565b6000809054906101000a900473ffffffffffffffffffffffffffffffffffffffff1673ffffffffffffffffffffffffffffffffffffffff163373ffffffffffffffffffffffffffffffffffffffff16141515611e1a57600080fd5b6000809054906101000a900473ffffffffffffffffffffffffffffffffffffffff1673ffffffffffffffffffffffffffffffffffffffff16ff5b600080600060026000896000191660001916815260200190815260200160002060009054906101000a900460ff168015611f6457503373ffffffffffffffffffffffffffffffffffffffff16600560008a6000191660001916815260200190815260200160002060009054906101000a900473ffffffffffffffffffffffffffffffffffffffff1673ffffffffffffffffffffffffffffffffffffffff161480611f635750600e6000896000191660001916815260200190815260200160002060060160003373ffffffffffffffffffffffffffffffffffffffff1673ffffffffffffffffffffffffffffffffffffffff16815260200190815260200160002060009054906101000a900460ff165b5b1515611fd8576040517f08c379a00000000000000000000000000000000000000000000000000000000081526004018080602001828103825260078152602001807f6164644578616d0000000000000000000000000000000000000000000000000081525060200191505060405180910390fd5b84518451141515612051576040517f08c379a00000000000000000000000000000000000000000000000000000000081526004018080602001828103825260078152602001807f6164644578616d0000000000000000000000000000000000000000000000000081525060200191505060405180910390fd5b600e6000896000191660001916815260200190815260200160002060040160009054906101000a900460ff16151561208e5761208c8861353e565b505b600f600089600019166000191681526020019081526020016000206009016000886000191660001916815260200190815260200160002060009054906101000a900460ff16151515612148576040517f08c379a00000000000000000000000000000000000000000000000000000000081526004018080602001828103825260078152602001807f6164644578616d0000000000000000000000000000000000000000000000000081525060200191505060405180910390fd5b6001600f60008a600019166000191681526020019081526020016000206009016000896000191660001916815260200190815260200160002060006101000a81548160ff021916908315150217905550600f60008960001916600019168152602001908152602001600020600001879080600181540180825580915050906001820390600052602060002001600090919290919091509060001916905550600f6000896000191660001916815260200190815260200160002060020186908060018154018082558091505090600182039060005260206000200160009091929091909150555060408051908101604052808860001916815260200187815250600f60008a60001916600019168152602001908152602001600020600a01600089600019166000191681526020019081526020016000206000820151816000019060001916905560208201518160010155905050600091505b845182101561233c5783828151811015156122b757fe5b90602001906020020151600f60008a60001916600019168152602001908152602001600020600a01600089600019166000191681526020019081526020016000206002016000878581518110151561230b57fe5b90602001906020020151600019166000191681526020019081526020016000208190555081806001019250506122a0565b600090505b600e600089600019166000191681526020019081526020016000206003018054905081101561245e57600f600089600019166000191681526020019081526020016000206006018181548110151561239557fe5b90600052602060002001600f60008a60001916600019168152602001908152602001600020600a01600089600019166000191681526020019081526020016000206002016000600e60008c600019166000191681526020019081526020016000206003018481548110151561240657fe5b9060005260206000200154600019166000191681526020019081526020016000205490806001815401808255809150509060018203906000526020600020016000909192909190915055508080600101915050612341565b60019250505095945050505050565b60008060008060026000886000191660001916815260200190815260200160002060009054906101000a900460ff16801561250e57503373ffffffffffffffffffffffffffffffffffffffff1660056000896000191660001916815260200190815260200160002060009054906101000a900473ffffffffffffffffffffffffffffffffffffffff1673ffffffffffffffffffffffffffffffffffffffff16145b80156125425750600e6000886000191660001916815260200190815260200160002060040160009054906101000a900460ff165b15156125b6576040517f08c379a000000000000000000000000000000000000000000000000000000000815260040180806020018281038252600f8152602001807f63616c63756c617465477261646573000000000000000000000000000000000081525060200191505060405180910390fd5b6125c087876138d6565b506125cb8786613bb6565b506125d587613db4565b50600092505b600e60008860001916600019168152602001908152602001600020600301805490508310156127a257600091505b600f600088600019166000191681526020019081526020016000206003018054905082101561279557600e600088600019166000191681526020019081526020016000206003018381548110151561265d57fe5b90600052602060002001549050600f600088600019166000191681526020019081526020016000206003018281548110151561269557fe5b9060005260206000200154600f60008960001916600019168152602001908152602001600020600c01600083600019166000191681526020019081526020016000205410151561278857600f6000886000191660001916815260200190815260200160002060040160068360088110151561270c57fe5b0154908060018154018082558091505090600182039060005260206000200160009091929091909150555060068260088110151561274657fe5b0154600f60008960001916600019168152602001908152602001600020600d016000836000191660001916815260200190815260200160002081905550612795565b8180600101925050612609565b82806001019350506125db565b600193505050509392505050565b606080606060026000856000191660001916815260200190815260200160002060009054906101000a900460ff16801561285057503373ffffffffffffffffffffffffffffffffffffffff1660056000866000191660001916815260200190815260200160002060009054906101000a900473ffffffffffffffffffffffffffffffffffffffff1673ffffffffffffffffffffffffffffffffffffffff16145b80156128845750600e6000856000191660001916815260200190815260200160002060040160009054906101000a900460ff165b15156128f8576040517f08c379a00000000000000000000000000000000000000000000000000000000081526004018080602001828103825260158152602001807f67657450726f664578616d57656967687461676573000000000000000000000081525060200191505060405180910390fd5b600f6000856000191660001916815260200190815260200160002060000180548060200260200160405190810160405280929190818152602001828054801561296457602002820191906000526020600020905b8154600019168152602001906001019080831161294c575b50505050509250600f600085600019166000191681526020019081526020016000206002018054806020026020016040519081016040528092919081815260200182805480156129d357602002820191906000526020600020905b8154815260200190600101908083116129bf575b50505050509150600f60008560001916600019168152602001908152602001600020600101805480602002602001604051908101604052809291908181526020018280548015612a4257602002820191906000526020600020905b815481526020019060010190808311612a2e575b505050505090509193909250565b600080600080600060026000876000191660001916815260200190815260200160002060009054906101000a900460ff168015612af357503373ffffffffffffffffffffffffffffffffffffffff1660056000886000191660001916815260200190815260200160002060009054906101000a900473ffffffffffffffffffffffffffffffffffffffff1673ffffffffffffffffffffffffffffffffffffffff16145b8015612b275750600e6000876000191660001916815260200190815260200160002060040160009054906101000a900460ff165b1515612b9b576040517f08c379a000000000000000000000000000000000000000000000000000000000815260040180806020018281038252600d8152602001807f67657450726f664772616465730000000000000000000000000000000000000081525060200191505060405180910390fd5b600f6000876000191660001916815260200190815260200160002060080160009054906101000a900460ff161515612db257600f6000876000191660001916815260200190815260200160002060000180549050604051908082528060200260200182016040528015612c2257816020015b6060815260200190600190039081612c0d5790505b50600f600088600019166000191681526020019081526020016000206007019080519060200190612c54929190614364565b50600093505b600f6000876000191660001916815260200190815260200160002060000180549050841015612d7657600092505b600e6000876000191660001916815260200190815260200160002060030180549050831015612d6957600f6000876000191660001916815260200190815260200160002060070184815481101515612cdc57fe5b90600052602060002001600f6000886000191660001916815260200190815260200160002060060184815481101515612d1157fe5b9060005260206000200185815481101515612d2857fe5b906000526020600020015490806001815401808255809150509060018203906000526020600020016000909192909190915055508280600101935050612c88565b8380600101945050612c5a565b6001600f6000886000191660001916815260200190815260200160002060080160006101000a81548160ff021916908315150217905550612ec6565b600091505b600f6000876000191660001916815260200190815260200160002060000180549050821015612ec557600090505b600e6000876000191660001916815260200190815260200160002060030180549050811015612eb857600f6000876000191660001916815260200190815260200160002060060181815481101515612e3957fe5b9060005260206000200182815481101515612e5057fe5b9060005260206000200154600f6000886000191660001916815260200190815260200160002060070183815481101515612e8657fe5b9060005260206000200182815481101515612e9d57fe5b90600052602060002001819055508080600101915050612de5565b8180600101925050612db7565b5b6001945050505050919050565b606080606060026000856000191660001916815260200190815260200160002060009054906101000a900460ff168015612f7357503373ffffffffffffffffffffffffffffffffffffffff1660056000866000191660001916815260200190815260200160002060009054906101000a900473ffffffffffffffffffffffffffffffffffffffff1673ffffffffffffffffffffffffffffffffffffffff16145b8015612fa75750600e6000856000191660001916815260200190815260200160002060040160009054906101000a900460ff165b151561301b576040517f08c379a000000000000000000000000000000000000000000000000000000000815260040180806020018281038252600d8152602001807f67657450726f664772616465730000000000000000000000000000000000000081525060200191505060405180910390fd5b600e6000856000191660001916815260200190815260200160002060030180548060200260200160405190810160405280929190818152602001828054801561308757602002820191906000526020600020905b8154600019168152602001906001019080831161306f575b50505050509250600f600085600019166000191681526020019081526020016000206005018054806020026020016040519081016040528092919081815260200182805480156130f657602002820191906000526020600020905b8154815260200190600101908083116130e2575b50505050509150600f6000856000191660001916815260200190815260200160002060040180548060200260200160405190810160405280929190818152602001828054801561316557602002820191906000526020600020905b815481526020019060010190808311613151575b505050505090509193909250565b60018181548110151561318257fe5b906000526020600020016000915090505481565b6003818154811015156131a557fe5b906000526020600020016000915054906101000a900473ffffffffffffffffffffffffffffffffffffffff1681565b606080600080600060026000886000191660001916815260200190815260200160002060009054906101000a900460ff16801561327757503373ffffffffffffffffffffffffffffffffffffffff1660056000896000191660001916815260200190815260200160002060009054906101000a900473ffffffffffffffffffffffffffffffffffffffff1673ffffffffffffffffffffffffffffffffffffffff16145b80156132ab5750600e6000886000191660001916815260200190815260200160002060040160009054906101000a900460ff165b151561331f576040517f08c379a000000000000000000000000000000000000000000000000000000000815260040180806020018281038252600d8152602001807f67657450726f664772616465730000000000000000000000000000000000000081525060200191505060405180910390fd5b600e6000886000191660001916815260200190815260200160002060030180548060200260200160405190810160405280929190818152602001828054801561338b57602002820191906000526020600020905b81546000191681526020019060010190808311613373575b50505050509450600f60008860001916600019168152602001908152602001600020600b0160008760001916600019168152602001908152602001600020549150600090505b600f600088600019166000191681526020019081526020016000206000018054905081101561350f578560001916600f600089600019166000191681526020019081526020016000206000018281548110151561342a57fe5b906000526020600020015460001916141561350257600f600088600019166000191681526020019081526020016000206002018181548110151561346a57fe5b90600052602060002001549250600f60008860001916600019168152602001908152602001600020600701818154811015156134a257fe5b906000526020600020018054806020026020016040519081016040528092919081815260200182805480156134f657602002820191906000526020600020905b8154815260200190600101908083116134e2575b5050505050935061350f565b80806001019150506133d1565b5092959194509250565b6000809054906101000a900473ffffffffffffffffffffffffffffffffffffffff1681565b6000606080606080606080606080600260008b6000191660001916815260200190815260200160002060009054906101000a900460ff16801561365757503373ffffffffffffffffffffffffffffffffffffffff16600560008c6000191660001916815260200190815260200160002060009054906101000a900473ffffffffffffffffffffffffffffffffffffffff1673ffffffffffffffffffffffffffffffffffffffff1614806136565750600e60008b6000191660001916815260200190815260200160002060060160003373ffffffffffffffffffffffffffffffffffffffff1673ffffffffffffffffffffffffffffffffffffffff16815260200190815260200160002060009054906101000a900460ff165b5b15156136cb576040517f08c379a000000000000000000000000000000000000000000000000000000000815260040180806020018281038252600e8152602001807f616464436f757273654d61726b7300000000000000000000000000000000000081525060200191505060405180910390fd5b600e60008b600019166000191681526020019081526020016000206003018054905060405190808252806020026020018201604052801561372057816020015b606081526020019060019003908161370b5790505b5091506101206040519081016040528089815260200188815260200187815260200186815260200185815260200184815260200183815260200182815260200160001515815250600f60008c60001916600019168152602001908152602001600020600082015181600001908051906020019061379e929190614311565b5060208201518160010190805190602001906137bb9291906143c4565b5060408201518160020190805190602001906137d89291906143c4565b5060608201518160030190805190602001906137f59291906143c4565b5060808201518160040190805190602001906138129291906143c4565b5060a082015181600501908051906020019061382f9291906143c4565b5060c082015181600601908051906020019061384c929190614411565b5060e0820151816007019080519060200190613869929190614411565b506101008201518160080160006101000a81548160ff0219169083151502179055509050506001600e60008c6000191660001916815260200190815260200160002060040160006101000a81548160ff021916908315150217905550600198505050505050505050919050565b60008060026000856000191660001916815260200190815260200160002060009054906101000a900460ff16801561397457503373ffffffffffffffffffffffffffffffffffffffff1660056000866000191660001916815260200190815260200160002060009054906101000a900473ffffffffffffffffffffffffffffffffffffffff1673ffffffffffffffffffffffffffffffffffffffff16145b80156139a85750600e6000856000191660001916815260200190815260200160002060040160009054906101000a900460ff165b1515613a1c576040517f08c379a000000000000000000000000000000000000000000000000000000000815260040180806020018281038252600d8152602001807f736574576569676874616765730000000000000000000000000000000000000081525060200191505060405180910390fd5b8251600f6000866000191660001916815260200190815260200160002060000180549050141515613ab5576040517f08c379a000000000000000000000000000000000000000000000000000000000815260040180806020018281038252600d8152602001807f736574576569676874616765730000000000000000000000000000000000000081525060200191505060405180910390fd5b82600f600086600019166000191681526020019081526020016000206001019080519060200190613ae7929190614471565b50600090505b600f6000856000191660001916815260200190815260200160002060000180549050811015613bab578281815181101515613b2457fe5b90602001906020020151600f60008660001916600019168152602001908152602001600020600b016000600f6000886000191660001916815260200190815260200160002060000184815481101515613b7957fe5b906000526020600020015460001916600019168152602001908152602001600020819055508080600101915050613aed565b600191505092915050565b600060026000846000191660001916815260200190815260200160002060009054906101000a900460ff168015613c5357503373ffffffffffffffffffffffffffffffffffffffff1660056000856000191660001916815260200190815260200160002060009054906101000a900473ffffffffffffffffffffffffffffffffffffffff1673ffffffffffffffffffffffffffffffffffffffff16145b8015613c875750600e6000846000191660001916815260200190815260200160002060040160009054906101000a900460ff165b1515613cfb576040517f08c379a000000000000000000000000000000000000000000000000000000000815260040180806020018281038252600f8152602001807f73657447726164654375746f666673000000000000000000000000000000000081525060200191505060405180910390fd5b60016008038251141515613d77576040517f08c379a000000000000000000000000000000000000000000000000000000000815260040180806020018281038252600f8152602001807f73657447726164654375746f666673000000000000000000000000000000000081525060200191505060405180910390fd5b81600f600085600019166000191681526020019081526020016000206003019080519060200190613da9929190614471565b506001905092915050565b6000806000806000806000806000600260008b6000191660001916815260200190815260200160002060009054906101000a900460ff168015613e5d57503373ffffffffffffffffffffffffffffffffffffffff16600560008c6000191660001916815260200190815260200160002060009054906101000a900473ffffffffffffffffffffffffffffffffffffffff1673ffffffffffffffffffffffffffffffffffffffff16145b8015613e915750600e60008b6000191660001916815260200190815260200160002060040160009054906101000a900460ff165b1515613f05576040517f08c379a000000000000000000000000000000000000000000000000000000000815260040180806020018281038252600e8152602001807f63616c63756c617465546f74616c00000000000000000000000000000000000081525060200191505060405180910390fd5b6103e89750600096505b600f60008b600019166000191681526020019081526020016000206000018054905087101561410e57600f60008b6000191660001916815260200190815260200160002060000187815481101515613f6357fe5b90600052602060002001549550600f60008b60001916600019168152602001908152602001600020600a0160008760001916600019168152602001908152602001600020600101549450600f60008b60001916600019168152602001908152602001600020600b0160008760001916600019168152602001908152602001600020549350600092505b600e60008b600019166000191681526020019081526020016000206003018054905083101561410157600e60008b600019166000191681526020019081526020016000206003018381548110151561404057fe5b90600052602060002001549150848489600f60008e60001916600019168152602001908152602001600020600a0160008a60001916600019168152602001908152602001600020600201600086600019166000191681526020019081526020016000205402028115156140af57fe5b04600f60008c60001916600019168152602001908152602001600020600c0160008460001916600019168152602001908152602001600020600082825401925050819055508280600101935050613fec565b8680600101975050613f0f565b600090505b600e60008b60001916600019168152602001908152602001600020600301805490508110156142805787600f60008c60001916600019168152602001908152602001600020600c016000600e60008e600019166000191681526020019081526020016000206003018481548110151561418857fe5b90600052602060002001546000191660001916815260200190815260200160002060008282548115156141b757fe5b0492505081905550600f60008b60001916600019168152602001908152602001600020600501600f60008c60001916600019168152602001908152602001600020600c016000600e60008e600019166000191681526020019081526020016000206003018481548110151561422857fe5b9060005260206000200154600019166000191681526020019081526020016000205490806001815401808255809150509060018203906000526020600020016000909192909190915055508080600101915050614113565b600198505050505050505050919050565b828054600181600116156101000203166002900490600052602060002090601f016020900481019282601f106142d257805160ff1916838001178555614300565b82800160010185558215614300579182015b828111156142ff5782518255916020019190600101906142e4565b5b50905061430d91906144be565b5090565b828054828255906000526020600020908101928215614353579160200282015b82811115614352578251829060001916905591602001919060010190614331565b5b50905061436091906144e3565b5090565b8280548282559060005260206000209081019282156143b3579160200282015b828111156143b25782518290805190602001906143a29291906143c4565b5091602001919060010190614384565b5b5090506143c09190614508565b5090565b828054828255906000526020600020908101928215614400579160200282015b828111156143ff5782518255916020019190600101906143e4565b5b50905061440d91906144be565b5090565b828054828255906000526020600020908101928215614460579160200282015b8281111561445f57825182908051906020019061444f9291906143c4565b5091602001919060010190614431565b5b50905061446d9190614508565b5090565b8280548282559060005260206000209081019282156144ad579160200282015b828111156144ac578251825591602001919060010190614491565b5b5090506144ba91906144be565b5090565b6144e091905b808211156144dc5760008160009055506001016144c4565b5090565b90565b61450591905b808211156145015760008160009055506001016144e9565b5090565b90565b61453191905b8082111561452d57600081816145249190614534565b5060010161450e565b5090565b90565b508054600082559060005260206000209081019061455291906144be565b505600a165627a7a7230582006785e219d1a5e1ad0b8039f1add9ce77619aed0174d6a82a47a0cfe9c056e760029",
  "source": "pragma solidity ^0.4.26;\n\ncontract Grader {\n    address public admin;\n    bytes32[] public courseIDList;\n    mapping(bytes32 => bool) courseIds;\n    address[] public instructorsList;\n    mapping(address => bool) instructors;\n    mapping(bytes32 => address) courseInstructor;\n    uint[8] gradeChart = [10, 9, 8, 7, 6, 5, 4, 0];\n\n    constructor() public {\n        admin = msg.sender;\n    }\n\n    function kill() public {\n        require(msg.sender == admin);\n        selfdestruct(admin);\n    }\n\n    struct Exam {\n        bytes32 examID;\n        uint maxMarks;\n        mapping (bytes32 => uint) marks;\n    }\n\n    struct Course {\n        bytes32 courseID;\n        string courseName;\n        address instructor;\n        bytes32[] rollList;\n        bool marksExist;\n        mapping (bytes32 => bool) rollNoVer;\n        mapping (address => bool) TAs;\n        mapping (bytes32 => address) students;\n        mapping (address => bool) studentAddrVer;\n    }\n\n    struct Marks {\n        bytes32[] examIDList;\n        uint[] weightageList;\n        uint[] maxMarksList;\n        uint[] gradeCutoffs;\n        uint[] gradeList;\n        uint[] totalMarksList;\n        uint[][] marksList;\n        uint[][] invMarksList;\n        bool invMarksExist;\n        mapping (bytes32 => bool) examIds;\n        mapping (bytes32 => Exam) exams;\n        mapping (bytes32 => uint) weightage;\n        mapping (bytes32 => uint) totalMarks;\n        mapping (bytes32 => uint) grades;\n    }\n\n    mapping(bytes32 => Course) courses;\n    mapping(bytes32 => Marks) courseMarks;\n\n    function addInstructor(address[] instrlist) public returns (bool added) {\n        require (msg.sender == admin, \"addInstructor\");\n        for (uint i = 0; i < instrlist.length; i++){\n            if(!instructors[instrlist[i]]){\n                instructorsList.push(instrlist[i]);\n                instructors[instrlist[i]] = true;\n            }\n        }\n        added = true;\n    }\n\n    function addCourse(bytes32 courseID, string courseName, bytes32[] rollList, address[] studAddr, address[] TAs) public returns (bool added) {\n        require (instructors[msg.sender] && (!courseIds[courseID]), \"addCourse\");\n        require (rollList.length == studAddr.length, \"addCourse\");\n        courseInstructor[courseID] = msg.sender;\n        courseIds[courseID] = true;\n        courseIDList.push(courseID);\n        courses[courseID] = Course(courseID, courseName, msg.sender, rollList, false);\n        for (uint i = 0; i < rollList.length; i++) {\n            if (!courses[courseID].studentAddrVer[studAddr[i]]) {\n                courses[courseID].students[rollList[i]] = studAddr[i];\n                courses[courseID].studentAddrVer[studAddr[i]] = true;\n            }\n            if (!courses[courseID].rollNoVer[rollList[i]])\n                courses[courseID].rollNoVer[rollList[i]] = true;\n        }\n        for (uint j = 0; j < TAs.length; j++)\n                courses[courseID].TAs[TAs[j]] = true;\n        added = true;\n    }\n\n    function addCourseMarks(bytes32 courseID) private returns (bool added) {\n        require (courseIds[courseID] && ((courseInstructor[courseID] == msg.sender) || courses[courseID].TAs[msg.sender]), \"addCourseMarks\");\n        bytes32[] memory examIDList;\n        uint[] memory weightageList;\n        uint[] memory maxMarksList;\n        uint[] memory gradeCutoffs;\n        uint[] memory gradeList;\n        uint[] memory totalMarksList;\n        uint[][] memory marksList = new uint[][] (courses[courseID].rollList.length);\n        uint[][] memory invMarksList;\n        courseMarks[courseID] = Marks(examIDList, weightageList,maxMarksList,gradeCutoffs,gradeList,totalMarksList,marksList,invMarksList,false);\n        courses[courseID].marksExist = true;\n        added = true;\n    }\n\n    function addExam(bytes32 courseID, bytes32 examID, uint maxMarks, bytes32[] rollList, uint[] marksList) public returns (bool added) {\n        require (courseIds[courseID] && ((courseInstructor[courseID] == msg.sender) || courses[courseID].TAs[msg.sender]), \"addExam\");\n        require (marksList.length == rollList.length, \"addExam\");\n        if (!courses[courseID].marksExist)\n            addCourseMarks(courseID);\n        require(!courseMarks[courseID].examIds[examID], \"addExam\");\n        courseMarks[courseID].examIds[examID] = true;\n        courseMarks[courseID].examIDList.push(examID);\n        courseMarks[courseID].maxMarksList.push(maxMarks);\n        courseMarks[courseID].exams[examID] = Exam(examID, maxMarks);\n        for (uint k = 0; k < rollList.length; k++) {\n            courseMarks[courseID].exams[examID].marks[rollList[k]] = marksList[k];\n        }\n        for (uint i = 0; i < courses[courseID].rollList.length; i++) {\n            courseMarks[courseID].marksList[i].push(courseMarks[courseID].exams[examID].marks[courses[courseID].rollList[i]]);\n        }\n        added = true;\n    }\n\n    function updateMarks(bytes32 courseID, bytes32 examID, bytes32[] rollList, uint[] marksList) public returns (bool added) {\n        require (courseIds[courseID] && ((courseInstructor[courseID] == msg.sender) || courses[courseID].TAs[msg.sender]) && courses[courseID].marksExist && courseMarks[courseID].examIds[examID], \"updateMarks\");\n        require (marksList.length == rollList.length, \"updateMarks\");\n        for (uint k = 0; k < rollList.length; k++) {\n            courseMarks[courseID].exams[examID].marks[rollList[k]] = marksList[k];\n        }\n        for (uint i = 0; i < courses[courseID].rollList.length; i++) {\n            bytes32 roll_no = courses[courseID].rollList[i];\n            for (uint j = 0; j < courseMarks[courseID].examIDList.length; j++) {\n                if (courseMarks[courseID].examIDList[j] == examID) {\n                    courseMarks[courseID].marksList[i][j] = courseMarks[courseID].exams[examID].marks[roll_no];\n                }\n            }\n        }\n        added = true;\n    }\n\n    function setWeightages(bytes32 courseID, uint[] weightageList) private returns (bool added) {\n        require (courseIds[courseID] && (courseInstructor[courseID] == msg.sender) && courses[courseID].marksExist, \"setWeightages\");\n        require (courseMarks[courseID].examIDList.length == weightageList.length, \"setWeightages\");\n        courseMarks[courseID].weightageList = weightageList;\n        for (uint i = 0; i < courseMarks[courseID].examIDList.length; i++)\n            courseMarks[courseID].weightage[courseMarks[courseID].examIDList[i]] = weightageList[i];\n        added = true;\n    }\n\n    function setGradeCutoffs(bytes32 courseID, uint[] gradeCutoffs) private returns (bool added) {\n        require (courseIds[courseID] && (courseInstructor[courseID] == msg.sender) && courses[courseID].marksExist, \"setGradeCutoffs\");\n        require (gradeCutoffs.length == (gradeChart.length - 1), \"setGradeCutoffs\");\n        courseMarks[courseID].gradeCutoffs = gradeCutoffs;\n        added = true;\n    }\n\n    function calculateTotal (bytes32 courseID) private returns (bool added) {\n        require (courseIds[courseID] && (courseInstructor[courseID] == msg.sender) && courses[courseID].marksExist, \"calculateTotal\");\n        uint pres = 1000;\n        for (uint i = 0; i < courseMarks[courseID].examIDList.length; i++) {\n            bytes32 exam_id = courseMarks[courseID].examIDList[i];\n            uint maxmarks = courseMarks[courseID].exams[exam_id].maxMarks;\n            uint weightage = courseMarks[courseID].weightage[exam_id];\n            for (uint j = 0; j < courses[courseID].rollList.length; j++) {\n                  bytes32 roll_no = courses[courseID].rollList[j];\n                  courseMarks[courseID].totalMarks[roll_no] += ((courseMarks[courseID].exams[exam_id].marks[roll_no] * pres * weightage)/maxmarks);\n            }\n        }\n        for (uint k = 0; k < courses[courseID].rollList.length; k++) {\n              courseMarks[courseID].totalMarks[courses[courseID].rollList[k]] /= pres;\n              courseMarks[courseID].totalMarksList.push(courseMarks[courseID].totalMarks[courses[courseID].rollList[k]]);\n        }\n        added = true;\n    }\n\n    function calculateGrades (bytes32 courseID, uint[] weightageList, uint[] gradeCutoffs) public returns (bool added) {\n        require (courseIds[courseID] && (courseInstructor[courseID] == msg.sender) && courses[courseID].marksExist, \"calculateGrades\");\n        setWeightages(courseID, weightageList);\n        setGradeCutoffs(courseID, gradeCutoffs);\n        calculateTotal(courseID);\n        for (uint i = 0; i < courses[courseID].rollList.length; i++) {\n            for (uint j = 0; j < courseMarks[courseID].gradeCutoffs.length; j++) {\n                bytes32 roll_no = courses[courseID].rollList[i];\n                if (courseMarks[courseID].totalMarks[roll_no] >= courseMarks[courseID].gradeCutoffs[j]) {\n                    courseMarks[courseID].gradeList.push(gradeChart[j]);\n                    courseMarks[courseID].grades[roll_no] = gradeChart[j];\n                    break;\n                }\n            }\n        }\n        added = true;\n    }\n\n    function getProfExamWeightages (bytes32 courseID) public view returns (bytes32[] examslist, uint[] maxMarkslist, uint[] weightages) {\n        require (courseIds[courseID] && (courseInstructor[courseID] == msg.sender) && courses[courseID].marksExist, \"getProfExamWeightages\");\n        examslist = courseMarks[courseID].examIDList;\n        maxMarkslist = courseMarks[courseID].maxMarksList;\n        weightages = courseMarks[courseID].weightageList;\n    }\n\n    function getInverseMarks (bytes32 courseID) public returns (bool added){\n        require (courseIds[courseID] && (courseInstructor[courseID] == msg.sender) && courses[courseID].marksExist, \"getProfGrades\");\n        if (!courseMarks[courseID].invMarksExist) {\n          courseMarks[courseID].invMarksList = new uint[][] (courseMarks[courseID].examIDList.length);\n          for (uint j = 0; j < courseMarks[courseID].examIDList.length; j++)\n              for (uint i = 0; i < courses[courseID].rollList.length; i++)\n                      courseMarks[courseID].invMarksList[j].push(courseMarks[courseID].marksList[i][j]);\n          courseMarks[courseID].invMarksExist = true;\n        }\n        else {\n          for (uint q = 0; q < courseMarks[courseID].examIDList.length; q++)\n              for (uint p = 0; p < courses[courseID].rollList.length; p++)\n                      courseMarks[courseID].invMarksList[q][p] = courseMarks[courseID].marksList[p][q];\n        }\n        added = true;\n    }\n\n    function getProfExamMarks (bytes32 courseID, bytes32 examID) public view returns (bytes32[] rolllist, uint[] markslist, uint maxmarks, uint weightage) {\n        require (courseIds[courseID] && (courseInstructor[courseID] == msg.sender) && courses[courseID].marksExist, \"getProfGrades\");\n        rolllist = courses[courseID].rollList;\n        weightage = courseMarks[courseID].weightage[examID];\n        for (uint i = 0; i < courseMarks[courseID].examIDList.length; i++) {\n          if (courseMarks[courseID].examIDList[i] == examID) {\n              maxmarks = courseMarks[courseID].maxMarksList[i];\n              markslist = courseMarks[courseID].invMarksList[i];\n              break;\n          }\n        }\n    }\n\n    function getStudentMarksGrades (bytes32 courseID, bytes32 rollNo) public view returns (bytes32[] examslist, uint[] weightages, uint[] maxMarkslist, uint[] markslist, uint totalmarks, uint grade) {\n        require (courseIds[courseID] && ((courseInstructor[courseID] == msg.sender) || courses[courseID].studentAddrVer[msg.sender]) && courses[courseID].rollNoVer[rollNo] && courses[courseID].marksExist, \"getStudentMarks\");\n        examslist = courseMarks[courseID].examIDList;\n        weightages = courseMarks[courseID].weightageList;\n        maxMarkslist = courseMarks[courseID].maxMarksList;\n        for (uint i = 0; i < courses[courseID].rollList.length; i++) {\n            if (courses[courseID].rollList[i] == rollNo)\n                markslist = courseMarks[courseID].marksList[i];\n        }\n        totalmarks = courseMarks[courseID].totalMarks[rollNo];\n        grade = courseMarks[courseID].grades[rollNo];\n    }\n\n    function getProfMarksGrades (bytes32 courseID) public view returns (bytes32[] rolllist, uint[] totalmarks, uint[] gradelist) {\n        require (courseIds[courseID] && (courseInstructor[courseID] == msg.sender) && courses[courseID].marksExist, \"getProfGrades\");\n        rolllist = courses[courseID].rollList;\n        totalmarks = courseMarks[courseID].totalMarksList;\n        gradelist = courseMarks[courseID].gradeList;\n    }\n}\n",
  "sourcePath": "/home/saiteja/Desktop/SEM-7/EE465/Project/decentralised-grading-system/contracts/Grader.sol",
  "compiler": {
    "name": "solc",
    "version": "0.4.26+commit.4563c3fc.Emscripten.clang"
  },
  "schemaVersion": "3.0.16",
  "updatedAt": "2019-10-15T20:56:22.281Z",
  "devdoc": {
    "methods": {}
  },
  "userdoc": {
    "methods": {}
  }
}